:020000040800F2
:1000000000000220B5440008692600086B2600089D
:100010006D2600086F260008712600080000000009
:100020000000000000000000000000004123000864
:100030007326000800000000D12300087526000880
:100040000545000805450008054500080545000868
:100050000545000805450008054500080545000858
:100060000545000805450008054500080545000848
:100070000545000805450008054500080545000838
:100080000545000805450008054500080545000828
:100090000545000805450008054500080545000818
:1000A0000545000805450008054500080545000808
:1000B00005450008054500080545000805450008F8
:1000C00005450008054500080545000805450008E8
:1000D00005450008054500080545000805450008D8
:1000E00005450008054500080545000805450008C8
:1000F00005450008054500080545000805450008B8
:1001000005450008054500080545000805450008A7
:1001100005450008054500085D260008054500085E
:100120000545000805450008054500080545000887
:100130000545000805450008054500080545000877
:100140000545000805450008054500080545000867
:100150000545000805450008054500080545000857
:100160000545000805450008054500080545000847
:100170000545000805450008054500080000000089
:080180000545000805450008D3
:1001900010B5054C237833B9044B13B10448AFF3C1
:1001A00000800123237010BDC0000020000000006B
:1001B000607E00080C4B43B10C480D4910B5AFF3FD
:1001C00000800C48036823B910BD0A48036833B99E
:1001D0007047094B002BF7D0BDE810401847064B7D
:1001E000002BF5D0184700BF00000000607E00081B
:1001F000C4000020C00000200000000053B94AB92C
:10020000002908BF00281CBF4FF0FF314FF0FF301E
:1002100000F07AB9ADF1080C6DE904CE00F006F8F3
:10022000DDF804E0DDE9022304B070472DE9F04772
:100230008C460D460446089E002B51D18A42174633
:100240006DD9B2FA82FEBEF1000F0BD0CEF1200CB8
:1002500001FA0EF520FA0CFC02FA0EF74CEA050C36
:1002600000FA0EF44FEA174A250CBCFBFAF81FFA05
:1002700087F90AFB18CC45EA0C4508FB09F3AB42A9
:100280000AD9ED1908F1FF3280F02381AB4240F228
:100290002081A8F102083D44ED1AA4B2B5FBFAF0A2
:1002A0000AFB105544EA054400FB09F9A14509D9A8
:1002B000E41900F1FF3380F00A81A14540F2078183
:1002C00002383C44A4EB090440EA08400021002E17
:1002D00061D024FA0EF4002334607360BDE8F08727
:1002E0008B4207D9002E54D0002186E82100084611
:1002F000BDE8F087B3FA83F1002940F08E80AB426D
:1003000002D3824200F2FA80841A65EB03050120D1
:10031000AC46002E3FD086E81010BDE8F08712B939
:100320000127B7FBF2F7B7FA87FEBEF1000F34D111
:10033000EB1B3A0C1FFA87FC0121B3FBF2F8250CEA
:1003400002FB183345EA03450CFB08F3AB4207D91F
:10035000ED1908F1FF3002D2AB4200F2D1808046A5
:10036000ED1AA3B2B5FBF2F002FB105543EA0544C7
:100370000CFB00FCA44507D9E41900F1FF3302D2BD
:10038000A44500F2B8801846A4EB0C0440EA0840EB
:100390009DE731463046BDE8F087CEF1200405FAEE
:1003A0000EF307FA0EF720FA04F83A0C25FA04F4D3
:1003B00048EA0308B4FBF2F14FEA184502FB114486
:1003C0001FFA87FC45EA044501FB0CF3AB4200FA37
:1003D0000EF409D9ED1901F1FF3080F08A80AB42AB
:1003E00040F2878002393D44EB1A1FFA88F5B3FBCF
:1003F000F2F002FB103345EA034500FB0CF3AB427D
:1004000007D9ED1900F1FF386FD2AB426DD9023830
:100410003D44EB1A40EA01418FE7C1F1200722FA7F
:1004200007F88B4005FA01F448EA030320FA07FEB7
:100430004FEA134CFD404EEA040EB5FBFCF94FEABF
:100440001E440CFB19551FFA83F844EA054509FBC5
:1004500008F4AC4202FA01F200FA01FA08D9ED18E8
:1004600009F1FF3043D2AC4241D9A9F102091D4440
:100470002D1B1FFA8EFEB5FBFCF00CFB10554EEA4F
:10048000054400FB08F8A04507D9E41800F1FF3542
:1004900029D2A04527D902381C4440EA0940A4EBE0
:1004A0000804A0FB02894C45C6464D4615D312D020
:1004B00056B1BAEB0E0364EB050404FA07F7CB4020
:1004C0001F43CC40376074600021BDE8F0871846B8
:1004D000F8E69046E0E6C245EAD2B8EB020E69EBD8
:1004E00003050138E4E72846D7E7404691E781460F
:1004F000BEE7014678E702383C4445E7084608E78E
:10050000A8F102083D442BE7704700BF000000003F
:1005100001F0FF01102A2BDB10F0070F08D010F8B4
:10052000013B013A8B422DD010F0070F42B3F6D1B8
:10053000F0B441EA012141EA014122F007047FF0D1
:1005400000070023F0E80256083C85EA010586EA28
:10055000010685FA47F5A3FA87F586FA47F6A5FA64
:1005600087F68EB9EED1F0BC01F0FF0102F0070270
:1005700032B110F8013B013A83EA010313B1F8D11B
:100580000020704701387047002D06BF35460338FC
:10059000073815F0010F07D1013015F4807F02BF35
:1005A000013015F4C03F0130F0BC0138704700BF86
:1005B0007047000030B5144D2C78BFF35B8F14F0FA
:1005C000010489B01DD1284606F02CFCC8B13F2398
:1005D00006930E4B05930E4B0493042301220D4901
:1005E000019307940A230394029400940A4804F0A8
:1005F000E5FA284606F022FC084A0949064806F0B2
:100600000AFC054809B030BDDC000020488600081F
:10061000C4870008B0870008E80000200000002020
:10062000B105000830B5144D2C78BFF35B8F14F082
:10063000010489B01DD1284606F0F4FBC8B13F2360
:1006400006930E4B05930E4B0493042301220D4990
:100650000193079414230394029400940A4804F02D
:10066000ADFA284606F0EAFB084A0949064806F0B2
:10067000D2FB054809B030BDE0000020C08700086B
:1006800064870008EC8700080801002000000020B3
:10069000B105000830B5144D2C78BFF35B8F14F012
:1006A000010489B01DD1284606F0BCFBC8B13F2328
:1006B00006930E4B05930E4B0493042301220D4920
:1006C0000193079428230394029400940A4804F0A9
:1006D00075FA284606F0B2FB084A0949064806F0B2
:1006E0009AFB054809B030BDE4000020AC87000843
:1006F0004C860008DC87000828010020000000204C
:10070000B105000810B5044606F09BFB204610BD5D
:100710007047012906D003D3022905D00020704775
:10072000FFF780BFFFF7B6BFFFF744BF10B5044621
:1007300006F087FB204610BD10B5FFF773FF044C91
:100740002060FFF7A7FF6060FFF734FFA06010BDD7
:1007500048010020014B00221A607047640100200C
:10076000034800234FF0FF321946006800F0E4BD53
:1007700068010020034800231A461946006800F06B
:100780006FBC00BF68010020034800231A461946C9
:10079000006800F0D1BD00BF6801002007B502A9C4
:1007A000002341F8043D084B186800F071FD019BDF
:1007B0003BB1064B4FF080521A60BFF34F8FBFF32F
:1007C0006F8F03B05DF804FB6801002004ED00E0CA
:1007D00008B5054C2046802102F097FD4FF47A7051
:1007E00002F0A8FAF6E700BF0000024000B589B0A9
:1007F00000F046F81422002103A806F0B4FB002400
:10080000134B02941A6B134842F001021A631B6BDC
:1008100003F00103224602938021029B02F070FD47
:100820008023039303A901230A48049305940694A3
:1008300002F078FC032300934FF4806223460649BC
:100840000194064800F0D4FE00F0AAFFFEE700BFC6
:1008500000380240000002408C7E0008D1070008EA
:1008600070477047704710B5044606F0EAFA204614
:1008700010BD00239B6AFFDE0023DB6AFFDE000061
:10088000F0B595B002F02EFA0024214B01941A6CB9
:1008900042F080521A641B6C03F080530193019B59
:1008A0001C4B02941A6842F440421A601B680F9471
:1008B00003F440430293029B012302250B93082774
:1008C000A823042608A8119308950E951097129551
:1008D000139603F029F90F2303934FF4A053052136
:1008E000069303A84FF4805307930495059403F0EF
:1008F000C1FA0948C02303614FF400334362076023
:10090000866103F083FB00F08FF815B0F0BD00BFE7
:1009100000380240007000406C01002010B5044611
:1009200006F08FFA204610BD10B5044606F089FA8D
:10093000204610BD38B5124C124D134913482246BB
:1009400006F069FA284600F049FA2246104928467E
:1009500006F061FA22460F490F4806F05CFA0F488C
:100960000F4900234360224683600E4B036006F06C
:1009700052FA22460C490D48BDE8384006F04BBA01
:10098000000000209C010020110700080C0000203E
:10099000A50A000865080008100000203C0C002093
:1009A00063080008A07E0008610800081400002009
:1009B0004068704741607047054A136843F0807390
:1009C0001360044A136843F001031360704700BFCB
:1009D000FCED00E0001000E0521A02EB5302B2FB03
:1009E000F3F07047014B1868704700BF041000E037
:1009F00010B5036804461B6931B19847A268636863
:100A00009B1A1844606010BD9847A06010BD00009C
:100A1000044A0021115408B902F032B80128FBD071
:100A2000704700BF890C002008B5002001F0ECFFE2
:100A3000012001F0E9FF0020FFF7EAFF0120BDE8F7
:100A40000840FFF7E5BF10B5FFF713FF0446FFF7B7
:100A500013FF81B2A0B2BDE8104002F099B837B5DB
:100A600068460D46144602F0B5F8BDF8000030B1F6
:100A7000BDF802302B60BDF804302360012003B0C4
:100A800030BD03681B6C184703685B6A18477047E2
:100A9000034B1B78002B40F2EF1018BF002070476B
:100AA0008D0C002010B5064B03600446054802F08B
:100AB000B7FA054B4FF08062C3F88820204610BD7E
:100AC000E07E0008480C002000E100E010B504467C
:100AD000FFF7E8FF204606F0B4F9204610BD0000FD
:100AE00010B5074C074B2360204602F0CAF9064BAD
:100AF0002361064B6361064B4FF080629A6010BD24
:100B0000480C002000B00240150B00088F0A0008B6
:100B100000E100E0024B1B68586803685B691847F6
:100B2000488E00202DE9F3410D68202D0C4600F081
:100B3000A480402D00F0A1802A1F56425641802DEE
:100B400000F09D80A5F580735D425D415E4B1B68A2
:100B5000986803681B6A98472368402B00F0A380BD
:100B600000F28F80042B00F09780202B00F09B80F8
:100B700010280CBF4FF0020E4FF0010E0021B4F808
:100B80000CC0B4F81280514BA8EB0C02DA601028AC
:100B9000A289D3F800C059600CBF022701279F60CB
:100BA000A8EB0208DCF8002022F440321143CCF814
:100BB0000010D3F800C0C3F82CE0DCF8341021F0AA
:100BC00007013943CCF83410DCF8402022F47F527E
:100BD00022F03F0242EA0802CCF84020228AA18992
:100BE000521A9A620EB9002D34D0227EFF2A1FBFFE
:100BF00002221A63227E5A6304BF00221A6305B3DD
:100C0000102894F818E0626953D102F01F014FF0E8
:100C10001F0CC2F3C420C1EB012191FBFCF141EA9E
:100C20000E61C0EB0020C2F3451290FBFCF041EADC
:100C30000041C2EB02223F2092FBF0F241EA022285
:100C40005A63A189628A2148DF61521A9A610021A0
:100C500002F01CFA01211D4802F018FAA389E2896A
:100C600006B94DB30093A3680192616817481A460C
:100C700002F055F902B0BDE8F081012662E70125D6
:100C800064E7802B12D0B3F5807F7FF471AF4FF013
:100C9000090E4FF4003172E710280CBF4FF0020E1E
:100CA0004FF0010EF5E74FF0000EF2E74FF00A0E9D
:100CB000EFE742EA0E62C3E700926168A268034868
:100CC00002F00EF9D6E700BF488E0020480C002045
:100CD000F7B5404B1B68986803681B6A0D46984738
:100CE00010286B69297E71D103F01F02C2EB02222A
:100CF0001F2092FBF0F4C3F3C42244EA0164C2EB68
:100D00000222C3F3451392FBF0F244EA0244C3EB20
:100D100003233F2293FBF2F3022244EA03242B68CD
:100D2000A9892D48082B6B8A8260A3EB0101C16061
:100D3000AF890CBF4FF400364FF44036DF1B036819
:100D40004660196821F4403131431960D0F800E061
:100D5000DEF8341021F007011143CEF83410DEF82C
:100D6000403023F47F5323F03F033B43B6F5003F6D
:100D7000CEF840301FD10123036309234463C362CB
:100D8000A9896B8AC2615B1A8361002102F07EF936
:100D90000121114802F07AF9B6F5003FAB89EA89E2
:100DA0000DD1A968019200930A460B460A4802F049
:100DB000B6F803B0F0BD0023C2628362E8E7009298
:100DC0002146AA68044802F08BF8F2E743EA01647E
:100DD0000122A4E7488E0020480C002070B505468B
:100DE0002C460A4B0C30002668602E726E7244F856
:100DF000203B6022214603F0DDFC05F52A63666195
:100E00001C34A342FBD1284670BD00BFE07E000821
:100E100000F1080343604FF0FF32C3600361002319
:100E200082600360704700230361704743684B6032
:100E30009A688A609A685160996008610368013312
:100E4000036070470A68531C30B50AD103695A68B9
:100E50004A6091608B6059600861036801330360E8
:100E600030BD00F108035C682568AA42EFD3234631
:100E7000F9E742688168036991608268416851605E
:100E80005A68904204BF82685A6000220261186862
:100E900001381860704770B51546026C866B0446C1
:100EA00042B905689DB9406800F066FF656001368B
:100EB000A66370BD6DB9806806F04AF8A368226C1D
:100EC00013446268A360934201D32368A3600020A7
:100ED000EDE7C06806F03CF8236CE26821685B42ED
:100EE0001A448A42E2603EBF62689B18E360022DAA
:100EF000EDD10EB1013EEAE73046D8E7034610B423
:100F00001A6C084662B1D9685C681144A142D96084
:100F100024BF1968D960D9685DF8044B06F018B889
:100F20005DF8044B704770B5044601F01BFA94F865
:100F3000455004F124066DB2002D14DCFF2384F823
:100F4000453001F031FA01F00DFA94F8445004F103
:100F500010066DB2002D12DCFF2384F84430BDE88A
:100F6000704001F021BA636A002BE7D0304600F0F0
:100F70001BFE08B100F0A4FE013D6DB2DCE7236961
:100F8000002BE9D0304600F00FFE08B100F098FECB
:100F9000013D6DB2DEE7000038B50D46044640B9AC
:100FA0004FF0500383F31188BFF36F8FBFF34F8F60
:100FB000FEE701F0D7F9206CE36B2268A26043439F
:100FC000D1181B1A13446160E3600021FF23A16361
:100FD00084F8443084F8453095B9236963B104F14D
:100FE000100000F0E1FD38B10A4B4FF080521A605A
:100FF000BFF34F8FBFF36F8F01F0D6F9012038BDDB
:1010000004F11000FFF704FF04F12400FFF700FFD4
:10101000F2E700BF04ED00E0F8B50D4617460646BE
:1010200040B94FF0500383F31188BFF36F8FBFF3C4
:101030004F8FFEE74843503001F0BAF8044648B1FC
:1010400055B92060E663256401212046FFF7A4FF1F
:1010500084F84C702046F8BD00F150030360F1E7BE
:101060002DE9FF47894601921F46044640B94FF0DB
:10107000500383F31188BFF36F8FBFF34F8FFEE7E9
:10108000002940F08880036C002B00F084804FF032
:10109000500383F31188BFF36F8FBFF34F8FFEE7C9
:1010A000019E002E00F082804FF0500383F31188E0
:1010B000BFF36F8FBFF34F8FFEE7019D1DB901F0A6
:1010C00073F9002058E016B902A800F0AFFD01F056
:1010D0006BF900F0A5FB01F045F994F84430FF2BC3
:1010E00008BF84F8448094F84530FF2B08BF84F88B
:1010F000458001F059F901A902A800F0A7FD0028D8
:1011000043D101F02FF9A66BE56B01F04DF9AE422A
:1011100035D1019904F1100000F00EFD2046FFF7D3
:1011200002FF00F01DFC38B94FF08053CAF80030C0
:10113000BFF34F8FBFF36F8F012601F013F9A26B3E
:10114000E36B9A4201D3022FB7D13A464946204673
:10115000FFF7A1FE636A1BB104F1240000F024FD37
:1011600038B1194B4FF080521A60BFF34F8FBFF365
:101170006F8F01F019F9012004B0BDE8F087204617
:10118000FFF7D1FE00F0ECFBD6E72046FFF7CBFEE1
:1011900000F0E6FB95E7022F02D1E36B012B0AD1A9
:1011A00000F094FD00283FF47BAF00264FF00008CC
:1011B000DFF814A0C1E74FF0500383F31188BFF3A9
:1011C0006F8FBFF34F8FFEE704ED00E02DE9F8438A
:1011D000884691461F46044640B94FF0500383F3BA
:1011E0001188BFF36F8FBFF34F8FFEE709BB036C0E
:1011F000FBB14FF0500383F31188BFF36F8FBFF340
:101200004F8FFEE704F1240000F0CEFC002834D01C
:10121000B9F1000F31D00120C9F8000086F3118820
:10122000BDE8F88301356DB284F8455025E0002013
:10123000F4E7022F02D1E36B012B20D101F09AF9E0
:10124000EFF311864FF0500383F31188BFF36F8FD4
:10125000BFF34F8FA26BE36B9A4201D3022FE6D10B
:1012600094F845503A466DB241462046FFF713FECA
:101270006B1CD7D1636A002BC4D10120CEE74FF09D
:10128000500383F31188BFF36F8FBFF34F8FFEE7D7
:1012900070B50D46044640B94FF0500383F31188F2
:1012A000BFF36F8FBFF34F8FFEE7036C43B14FF077
:1012B000500383F31188BFF36F8FBFF34F8FFEE7A7
:1012C00003680BB9436873BB01F054F9EFF311865F
:1012D0004FF0500383F31188BFF36F8FBFF34F8F2D
:1012E000A26BE36B9A4201D3002014E094F84530DE
:1012F00001325BB2A2635A1C10D1636A0BB90120A0
:1013000009E004F1240000F04FFC0028F7D0002D84
:10131000F5D00120286086F3118870BD01335BB2DF
:1013200084F84530EBE74FF0500383F31188BFF3A7
:101330006F8FBFF34F8FFEE72DE9FF47884601927D
:101340009946044640B94FF0500383F31188BFF328
:101350006F8FBFF34F8FFEE7002940F0A580036C2D
:10136000002B00F0A1804FF0500383F31188BFF3EE
:101370006F8FBFF34F8FFEE7019E002E00F09A8023
:101380004FF0500383F31188BFF36F8FBFF34F8F7C
:10139000FEE7636AE660002B6DD004F124005FE095
:1013A000019D1DB901F000F8284667E016B902A8B2
:1013B00000F03CFC00F0F8FF00F032FA00F0D2FF41
:1013C00094F84430FF2B08BF84F8447094F84530FB
:1013D000FF2B08BF84F8457000F0E6FF01A902A8C2
:1013E00000F034FC002852D100F0BCFFA56B00F0E7
:1013F000DBFF002D45D1236833B900F0B3FF6068EF
:1014000000F074FC00F0D0FF019904F1240000F01A
:1014100093FB2046FFF787FD00F0A2FA38B94FF0A2
:101420008053CAF80030BFF34F8FBFF36F8F012690
:1014300000F098FFA56B002DB2D041462046E6682B
:10144000FFF75CFDB9F1000FA3D12368013DA5634F
:1014500013B900F0E1FC6060236963B104F110008E
:1014600000F0A2FB38B1154B4FF080521A60BFF369
:101470004F8FBFF36F8F00F097FF012004B0BDE8DE
:10148000F0872046FFF74FFD00F06AFACFE72046CD
:10149000FFF749FD00F064FA00F064FFA56B00F06F
:1014A00083FF002DC3D17FE700F010FC00283FF43C
:1014B00063AF00260027DFF804A0B9E704ED00E0E1
:1014C00030B5074A002352F8335002EBC3041DB96C
:1014D00042F83310606030BD0133082BF3D130BDCA
:1014E000688E002070B504460D46164600F03AFF9F
:1014F00094F84430FF2B04BF002384F8443094F860
:101500004530FF2B04BF002384F8453000F04CFF2A
:10151000A36B2BB93246294604F1240000F026FBC8
:101520002046BDE87040FFF7FEBC0000064A136885
:101530001968064B19B94FF0FF321A6070471268EC
:10154000D268D2685268F8E7940C0020800D002021
:10155000F8B51B4B1B4E1D680446306804300F461F
:10156000FFF787FC334640B93168174EC96A3268C5
:101570000120884022EA00023260621C07D137B1A4
:10158000196812480431BDE8F840FFF74FBC2C44FD
:101590001A68A542546007D90D4A10681968BDE859
:1015A000F8400431FFF74EBC0A4A1068196804314C
:1015B000FFF748FC084B1A68944238BF1C60F8BD1E
:1015C000C80D0020900C0020500D0020A00D002020
:1015D000980C0020940C0020800D00204FF0500348
:1015E00083F31188BFF36F8FBFF34F8FFEE70000C7
:1015F0002DE9F84F4FEA820A804650460D4699463B
:101600000B9E00F0D5FD0746002800F09F8060206B
:1016100000F0CEFD0446002800F095805246076396
:10162000A521384605F09FFC236BAAF1040A9A44D1
:101630002AF0070A6B1E04F134020F35597802F8BC
:10164000011B13F8011F09B1AB42F7D10A9D072D09
:1016500028BF07254FF0000B271DE562E5643846DB
:1016600084F843B0C4F850B0FFF7DDFBC5F10805BE
:1016700004F11800FFF7D7FBC4F858B02461A56146
:101680006462C4F854B084F85CB04A46414650469F
:1016900000F03EFE206006B1346000F063FE324B85
:1016A000324E1A68DFF8F08001321A603568002D7A
:1016B0004FD134601B68012B1DD108EB0500143598
:1016C000FFF7A6FBA02DF8D1DFF8D090284D4846B3
:1016D000FFF79EFB2846FFF79BFB2648FFF798FB8A
:1016E0002548FFF795FB2548FFF792FB244BC3F8ED
:1016F0000090244B1D60244A244913680868013374
:101700001360E26A6364012505FA02F303431420BF
:101710000B6000FB02803946FFF788FB00F044FEB7
:101720001B4B1B6863B13368DA6AE36A9A4207D2DB
:10173000184B4FF080521A60BFF34F8FBFF36F8F7B
:101740002846BDE8F88F384600F08EFD4FF0FF3593
:10175000F6E70F4B1B68002BCDD13368DA6AE36ADA
:101760009A4298BF3460C6E73C0D0020900C0020E0
:10177000680D0020880D0020B40D0020A00D002071
:10178000940C0020980C00204C0D0020500D0020DF
:101790009C0D002004ED00E09C0C0020540D002066
:1017A00013B5194B01930024009423468022174956
:1017B0001748FFF71DFF012818D100F083FB01280F
:1017C00014D14FF0500383F31188BFF36F8FBFF331
:1017D0004F8F104B4FF0FF321A600F4B18600F4BBA
:1017E0001C6002B0BDE8104000F04EBE013008D1D0
:1017F0004FF0500383F31188BFF36F8FBFF34F8F08
:10180000FEE702B010BD00BF7C0D0020247F000861
:10181000511A0008800D00209C0D0020C80D0020EA
:10182000024A136801331360704700BF480D00205F
:10183000014B1868704700BFC80D00202DE9F84F14
:101840003C4B1B68002B53D13B4B1C6801341C6084
:10185000BCB93A4B1A68126842B14FF0500383F397
:101860001188BFF36F8FBFF34F8FFEE7344A1968BB
:10187000106818601160334A136801331360FFF772
:1018800055FE314D314F2B689C424FF0000B3ED33B
:10189000DFF8A880DFF8C490D8F80020126872BB87
:1018A0004FF0FF322A6032E006F1040A5046FFF79B
:1018B000E0FAB16A19B106F11800FFF7DAFAF06A36
:1018C000D9F80030012202FA00F11943204BC9F87F
:1018D00000104FF0140E51460EFB0030FFF7A6FA31
:1018E0003868F16AC26A914228BF4FF0010BD3E712
:1018F000184A1368013313604FF0000B11E0D8F859
:101900000020D268D66871688C42CDD229603A68CE
:101910000F4BD16A14224A439A58022A28BF4FF02B
:10192000010B0D4A1268002A18BF4FF0010B5846F0
:10193000BDE8F88F480D0020C80D0020940C002051
:10194000980C0020840D0020800D0020900C0020B9
:101950009C0C0020440D0020CC0D0020500D0020D8
:101960002DE9F843314C236843B94FF0500383F31A
:101970001188BFF36F8FBFF34F8FFEE700F0F2FCCB
:101980002368013B236024682CB1002400F00CFD87
:101990002046BDE8F883264B1B68002BF5D0DFF806
:1019A000A890244FDFF8A480D9F80030E3B90CB137
:1019B000FFF7BCFD204D2C6844B1204E0127FFF7F6
:1019C0003DFF00B13760013CF9D12C601B4B1B6817
:1019D000002BDAD01A4B4FF080521A60BFF34F8FB2
:1019E000BFF36F8F0124D1E7D9F80C30DC68261DD6
:1019F00004F11800FFF73DFA3046FFF73AFAE26AC1
:101A00003968012505FA02F314200B4300FB02801C
:101A100031463B60FFF70AFA0A4BE26A1B68DB6A51
:101A20009A4224BF054B1D60BEE700BF480D002051
:101A30003C0D0020500D0020440D0020CC0D002056
:101A400004ED00E0900C0020880D00209C0C00208C
:101A500008B5174E174C236863B9174B1B68012B49
:101A6000F8D9164B4FF080521A60BFF34F8FBFF377
:101A70006F8FEFE7FFF7D4FE3568FFF771FF002D9A
:101A8000E9D000F06FFCF368DD68281DFFF7F1F97D
:101A90000B4A1368013B13602368013B236000F08D
:101AA00083FC286B00F0E0FB284600F0DDFBD2E76A
:101AB000B40D0020400D00209C0C002004ED00E03F
:101AC0003C0D002010B5174B1A68174B12B10122BC
:101AD0001A6010BD1A60154B1B68B3FA83F3DBB2B2
:101AE000C3F11F03142212495A4388188C5844B971
:101AF0004FF0500383F31188BFF36F8FBFF34F8F05
:101B0000FEE744680832646844600A44944204BFB3
:101B100062684260142202FB03135B68DA68054BBB
:101B2000D6E700BF480D0020CC0D0020500D00204E
:101B30009C0C0020900C002010B50C4640B94FF0D2
:101B4000500383F31188BFF36F8FBFF34F8FFEE70E
:101B5000054B19681831FFF775F920460121BDE8DA
:101B60001040FFF7F5BC00BF900C002038B50D46C3
:101B7000144640B94FF0500383F31188BFF36F8FC1
:101B8000BFF34F8FFEE7074B19681831FFF74EF987
:101B9000002C21460CBF28464FF0FF30BDE83840EE
:101BA000FFF7D6BC900C002038B5C368DC6844B998
:101BB0004FF0500383F31188BFF36F8FBFF34F8F44
:101BC000FEE704F118052846FFF753F9114B1B688F
:101BD000E3B9251D2846FFF74CF90F49E26A08686A
:101BE0000123934003430B600C4B1420294600FB58
:101BF0000230FFF71BF90A4BE26A1B68DB6A9A4264
:101C000083BF084B01201860002038BD29460648D4
:101C1000EFE700BF480D0020500D00209C0C002075
:101C2000900C0020CC0D0020880D002008B508B9CC
:101C3000FFF7D4FC034B1B680360034B1B68436036
:101C400008BD00BF840D0020C80D002038B50D462A
:101C5000044640B94FF0500383F31188BFF36F8FF0
:101C6000BFF34F8FFEE741B94FF0500383F3118864
:101C7000BFF36F8FBFF34F8FFEE700F073FB0E4B88
:101C800019682B685A1C10D00C4A206812689042C0
:101C9000626801D091420DD2881A83420AD95B1A38
:101CA00013442B602046FFF7C1FF002400F07CFBAB
:101CB000204638BD0124F9E7C80D0020840D00201E
:101CC000014B01221A607047CC0D0020054B1B68A8
:101CD00033B1054B1B68002B0CBF0220002070475E
:101CE000012070479C0D0020480D00202DE9F04197
:101CF0000446002838D01D4DC36A2A68D26A934230
:101D000032D282691A4E002AA1BF2A68D26AC2F171
:101D1000080282611427426907FB03639A4220D1BB
:101D200000F104084046FFF7A4F8124A48B9E06AF7
:101D30004743F3592BB913680121814023EA01037A
:101D400013602B681168D86AE062012383400B435B
:101D500013601423414603FB0060BDE8F041FFF728
:101D600065B82B68DB6AC362BDE8F081900C002087
:101D70009C0C0020500D0020F8B5044608B9002046
:101D8000F8BD224B1B68984208D04FF0500383F3F4
:101D90001188BFF36F8FBFF34F8FFEE7036D43B919
:101DA0004FF0500383F31188BFF36F8FBFF34F8F52
:101DB000FEE7C16AC26C013B91420365DFD0002B94
:101DC000DDD1051D2846FFF754F8114E114A50B9D0
:101DD000E76A1421794373582BB913680120B8407E
:101DE00023EA00031360E36CE362C3F10801A1611D
:101DF0001168012404FA03F008431060142000FB6A
:101E000003602946FFF712F82046F8BD900C002029
:101E10009C0C0020500D0020044B1A681AB1196860
:101E20000A6D01320A651868704700BF900C0020E7
:101E3000F8B50F4C00F096FA2568ADB90D4F0E4E6F
:101E40003846FEF7E5FF3046FEF7E2FF0B4B1F601A
:101E50000B4B2A460C210A201E60FFF7DDF820609C
:101E600010B10849FFF72CFBBDE8F84000F09CBA20
:101E7000040E0020D80D0020EC0D0020D00D002015
:101E8000D40D0020297F0008914208B5416000610F
:101E90000AD8D21A83699A420DD2084B011D1868DC
:101EA000FEF7D0FF002008BD9A4201D2994202D22B
:101EB000011D034BF3E7012008BD00BFD40D002036
:101EC000D00D002007B5FFF7B3FF0D4B1B685BB1CA
:101ED0000C4B0193022300934FF4807200230A49B4
:101EE0000A48FFF785FB40B94FF0500383F3118890
:101EF000BFF36F8FBFF34F8FFEE703B05DF804FBB6
:101F0000040E0020080E00202E7F0008E51F0008A8
:101F100030B5154685B01A46034640B94FF0500318
:101F200083F31188BFF36F8FBFF34F8FFEE70D4C24
:101F3000206880B105290191029503930DDCFFF71C
:101F4000C5FE0023022808BF089A206818BF1A4659
:101F500001A9FFF785F805B030BD002301A9FFF7FF
:101F600035F9F8E7040E00202DE9F3411B4D4FF041
:101F700000082B681A6832B9194A11682960136081
:101F800002B0BDE8F081DB68DC681E68271D3846BA
:101F9000FEF76FFF636A20469847E369012BE8D19B
:101FA000A36933449E4206D263602461394628689F
:101FB000FEF748FFDDE70023CDF8008032461946E2
:101FC0002046FFF7A5FF0028D3D14FF0500383F33D
:101FD0001188BFF36F8FBFF34F8FFEE7D00D002046
:101FE000D40D00202DE9F04F6C4DDFF8C08189B091
:101FF0002F462B68D3F800B0BBF1000F42D0DB684E
:10200000D3F80090FFF70CFCFFF712FC644B1A6842
:10201000904282461E4637D20393FFF7A5FF039BEB
:102020000124C3F800A0002C7ED1BBF1000F60D0CA
:10203000D14577D8FFF794FC3B68DB68D3F80CB048
:102040000BF10400FEF715FFDBF81C30012B1DD14E
:10205000DBF818104B46524649445846FFF714FF28
:10206000A0B1009423464A4621465846FFF750FF48
:1020700060B94FF0500383F31188BFF36F8FBFF344
:102080004F8FFEE7D946BDE70024CAE7DBF82430CE
:1020900058469847DFF81091D9F8000000231A46F7
:1020A00005A9FFF749F90028A3D0059B002BF3DB16
:1020B000079C636913B1201DFEF7DBFEFFF7B8FB39
:1020C00033689842834601D2FFF74EFF059AC6F85F
:1020D00000B0092AE0D80123934013F4047A4AD1CE
:1020E00013F0C70F23D19B06D6D5204600F0BCF8CD
:1020F000D2E72C4B1B681A68B2FA82F252092A4BBB
:10210000A9EB0A011868FFF7EDF9FFF729FC002891
:10211000C0D14FF08053C8F80030BFF34F8FBFF3EA
:102120006F8FB7E72246EAE7FFF71AFCB2E7A1692B
:10213000069B5A4619442046FFF7A6FE0028ABD05E
:10214000636A20469847E369012BA5D1A2690699E5
:10215000CDF800A00A44534651462046FFF7D8FE6A
:10216000002899D14FF0500383F31188BFF36F8F8C
:10217000BFF34F8FFEE70699A16141B94FF05003BD
:1021800083F31188BFF36F8FBFF34F8FFEE75B467A
:102190005A4659442046FFF777FE7DE7D00D0020D0
:1021A000000E0020D40D0020040E002004ED00E0FD
:1021B00070B50446FFF734FB2648016871B9264B19
:1021C000264A23F0070313605160254A47F6F87545
:1021D00082E8220083E82400012303602CB1083444
:1021E00063071CBF24F007040834621E47F6F67329
:1021F0009A4207D8194A136859688C4204D818497A
:102200008B4207D100251EE019680029F7D01A4635
:102210000B46F1E71968156811605968091B102908
:1022200005F108050AD91A1951605C6056680B4916
:1022300008684468A6420AD810600A6009495B68C9
:102240000A68D21A0A60FFF78BFB284670BD014668
:10225000EEE700BF148E0020140E0020188E002020
:102260000C8E00201800002038B50446C8B1A0F13B
:102270000805FFF7D5FA54F8040C0A4B1A685168A0
:1022800088420CD844F8082C074A1D6054F8043CD6
:1022900011680B441360BDE83840FFF761BB13467B
:1022A000ECE738BD188E0020180000200A4B1B6890
:1022B000013308D04FF0500383F31188BFF36F8FC1
:1022C000BFF34F8FFEE74FF0500383F31188BFF346
:1022D0006F8FBFF34F8FFEE71C0000200648006899
:1022E000006880F3088862B661B6BFF34F8FBFF312
:1022F0006F8F00DF00BF000008ED00E0DFF80C008A
:10230000016841F4700101607047000088ED00E051
:102310004FF0807340F8043C074B40F80C3C21F030
:1023200001016FF0020340F8081C40F8202C40F82F
:10233000243C4438704700BFAD2200080000000074
:10234000074B19680868B0E8F04F80F30988BFF3BD
:102350006F8F4FF0000080F311887047AFF300805B
:10236000900C00204FF0500383F31188BFF36F8F60
:10237000BFF34F8F0A4A13680133012B13600DD14D
:10238000084B1B6813F0FF0F08D04FF0500383F386
:102390001188BFF36F8FBFF34F8FFEE7704700BF09
:1023A0001C00002004ED00E0084A136843B94FF018
:1023B000500383F31188BFF36F8FBFF34F8FFEE796
:1023C000013B13600BB983F3118870471C00002098
:1023D000EFF30980BFF36F8F154B1A681EF0100FD3
:1023E00008BF20ED108A20E9F04F10604DF8043D41
:1023F0004FF0500080F31188BFF34F8FBFF36F8F02
:10240000FFF760FB4FF0000080F3118808BC1968EB
:102410000868B0E8F04F1EF0100F08BFB0EC108A4B
:1024200080F30988BFF36F8F704700BFAFF3008060
:10243000900C002008B54FF0500383F31188BFF3D0
:102440006F8FBFF34F8FFFF7F9F918B1034B4FF0C0
:1024500080521A60002383F3118808BD04ED00E068
:10246000064B4FF47A721B68B3FBF2F3044A013B4C
:102470001360044B07221A60704700BF540000200D
:1024800014E000E010E000E013B5314B314A196868
:10249000914208D14FF0500383F31188BFF36F8F3F
:1024A000BFF34F8FFEE71A682B4B9A4208D14FF0CB
:1024B000500383F31188BFF36F8FBFF34F8FFEE795
:1024C000264B1A78D2B20192FF221A701B78244A46
:1024D000DBB28DF803309DF8033003F05003137026
:1024E000204B07221A6000219DF80300000602F12C
:1024F000FF3423D401B11A601A68120202F4E062B8
:102500001A60019B154ADBB21370174B1A6842F42C
:1025100070021A601A6842F070421A60FFF7A0FF5A
:10252000124B00221A60FFF7E9FE114A136843F0CC
:1025300040431360FFF7D2FEFFF7B8FE9DF803207B
:102540005200D2B28DF8032001212246CCE700BF11
:1025500000ED00E071C20F4170C20F4100E400E0E5
:10256000208E0020248E002020ED00E01C000020A2
:1025700034EF00E0EFF305830F2B0ED9104A9B5C7C
:10258000104A12789A4208D94FF0500383F3118809
:10259000BFF36F8FBFF34F8FFEE70B4B0B4A1B68E8
:1025A000126803F4E063934208D94FF0500383F3B9
:1025B0001188BFF36F8FBFF34F8FFEE7704700BFE7
:1025C000F0E300E0208E00200CED00E0248E0020DF
:1025D00010B5014688B00022362000F0CDFB362031
:1025E00000F0FEFB00230293174B1A6C42F010021E
:1025F0001A641B6C03F01003029301A903A8029B49
:1026000001F0E6FC069BC3B901F0D2FC0F4C104B65
:10261000236040F2E733E3600E4BB0FBF3F0013888
:102620000023606020462361A36001F027FF40B9CA
:10263000204601F008FE08B010BD01F0B9FC4000D2
:10264000E4E70120F7E700BF00380240A88E002031
:102650000010004040420F0000F05EBB014801F056
:1026600002BE00BFA88E00207047FEE7FEE7FEE72F
:10267000FEE77047024B1B780BB1FFF7DBBE7047DC
:10268000880C002010B5C4B202220321204600F0BD
:1026900031FA0A2000F07AFA20460022032100F0E5
:1026A00029FA0220BDE8104000F070BA38B504469F
:1026B000E4B200F0F3F90021204600F035FA0121E0
:1026C0000546204600F030FA40EA052080B238BDC9
:1026D00010B5C4B24021204600F026FA030607D503
:1026E0004C21204600F020FA003018BF012010BD18
:1026F000204601224B2100F0FDF9204600224B210B
:1027000000F0F8F9002010BD73B50423C4B20E46E2
:102710001546D7210DEB0302204600F021FA019B5C
:102720001BBA1A0DC3F30B23328020462B800122E3
:102730004B2100F0DFF900224B21204600F0DAF9AE
:1027400002B070BD10B50B4A13789842044610D001
:102750005178884203D110BD59B9012301E0002B03
:10276000FAD1D45400F09AF92046BDE81040FFF7A2
:1027700089BF10BD288E002010B5C4B209212046A3
:1027800000F0D2F940F00102D2B220460921BDE8A2
:10279000104000F0AFB910B5C4B20921204600F0D6
:1027A000C3F9092100F0FE022046BDE8104000F008
:1027B000A1B938B5C5B20C4628460A2100F0B4F9D3
:1027C00040EA0402D2B228460A21BDE8384000F0AF
:1027D00091B910B5044600F063F920461F21FFF7B8
:1027E000E8FF2046BDE81040FFF7C6BF38B5C5B2C8
:1027F0000C4628460A2100F097F920EA0402D2B2DA
:1028000028460A21BDE8384000F074B910B50446E6
:10281000FFF7C1FF20461F21BDE81040FFF7E6BFCC
:1028200010B5C0B20C460B2100F07EF9204010BD5F
:102830001F21FFF7F5BF0A46C0B20B2100F05AB9BD
:102840001F21FFF7F8BF38B5C5B20C46284617213F
:1028500000F06AF920EA0402D2B228461721BDE846
:10286000384000F047B970B5C4B20646042120468E
:1028700000F05AF9042100F0FB020546204600F062
:1028800039F93046F021FFF7DEFF05F0F802204667
:10289000042100F02FF949222021204600F02AF9D6
:1028A000022000F073F920460122212100F022F9D4
:1028B00020469A22412100F01DF9204601224A219A
:1028C00000F018F9204601224B2100F013F92046B0
:1028D00000224B2100F00EF920460122562100F083
:1028E00009F920460122582100F004F9204601226E
:1028F000402100F0FFF82046FF220B2100F0FAF8FB
:102900000220BDE8704000F041B9000070B5334EC0
:1029100088B0304601F004F9044600285BD1304A03
:10292000304B314D009086E80C004FF48043B0608E
:10293000F0607061B061F061306233612B6B43F025
:1029400004032B632B6B03F004030093009B0190A3
:102950002B6B43F001032B632B6B059003F00103FA
:102960000193019B21484FF4807303931223049336
:102970000223069303A90423079300F0D3FB4FF42B
:10298000007303A91A48039300F0CCFB02942B6C4C
:1029900043F400032B642B6C03F400030293029BAB
:1029A0002B6A43F400032B622B6A23F400032B628F
:1029B00022460F21482000F0DFF9482000F010FAED
:1029C00022460F21492000F0D7F9492000F008FAEB
:1029D000304600F069FE08B070BD00BFE48E0020F4
:1029E000005C0040A0860100003802400000024068
:1029F0000008024008B5034800F0CDFEBDE80840DD
:102A0000FFF784BFE48E002070B5044688B008BB91
:102A1000184B01901A6B42F040021A631B6B03F0D3
:102A200040030193019B144B144D33F8146055F887
:102A30002400039601230493059303A9022306931C
:102A400000F070FB0022314655F8240000F058FCDD
:102A500008B070BD0128E6D100230293054B1A6B24
:102A600042F040021A631B6B03F040030293029B87
:102A7000D9E700BF00380240367F00084800002038
:102A8000044B33F81010044B012253F8200000F0DF
:102A900037BC00BF367F000848000020FFF736BF74
:102AA00010B586B00024104B00941A6B0F4842F00A
:102AB00001021A631B6B049403F001030093009B53
:102AC0004FF4004301930123039301A9084B0293A0
:102AD00000F028FB22460F21282000F04DF9282085
:102AE00000F07EF906B010BD003802400000024040
:102AF0000000211010B586B006AC094B04F8012D7A
:102B00001B68029301230A4601930146009405487D
:102B100000F05AFE08B1FFF76DFF06B010BD00BF10
:102B200050000020E48E00207FB506AA002302F8A2
:102B3000013D094B1B68029301238DE80C000A46F6
:102B40000146064800F0DAFE08B1FFF753FF9DF892
:102B5000170007B05DF804FB50000020E48E002051
:102B60001FB5084C24688DE81C000A460123014665
:102B7000054800F0C3FE10B1FFF73CFF012004B090
:102B800010BD00BF50000020E48E002000F0D2B83D
:102B900038B50C4B0C4C18800C4B822019806368A4
:102BA000984740F6110398420AD1094D23682C60DA
:102BB000822098472B688220DB689847002038BD28
:102BC000012038BD308E002020000020328E0020F1
:102BD0002C8E002073B52A4D2B6804461B69822079
:102BE000984780B22080002848D02B680DF106025B
:102BF0005B6901A982209847BDF80630A3F5B4733C
:102C00009BB20B22B3FBF2F333B11E4A12889342FC
:102C100084BF02F1FF339BB2BDF8042040F6B83107
:102C20008A4295BFC2F57162C2F56D620E320832FA
:102C3000ADF80420BDF804000F22B0FBF2F030B173
:102C4000114A1288904284BF02F1FF3080B20F4EC9
:102C50000F4D3268296890428CBF821A121A8B423B
:102C60008CBF591AC91A92B289B20A44052AC4BF44
:102C700030602B60336863802B68A38002B070BD26
:102C80002C8E0020328E0020308E0020348E0020CA
:102C9000388E00200F49D1F8883043F47003C1F812
:102CA00088300D4B1A68002042F001021A609860CB
:102CB0001A6822F0847222F480321A60074A5A603D
:102CC0001A6822F480221A60D8604FF000638B608B
:102CD000704700BF00ED00E00038024010300024D3
:102CE0007047000008B50B4B1A6842F400721A6076
:102CF0001A6842F480621A601A6842F480721A609C
:102D0000032000F027F80120FFF762FCFFF7E8FF3F
:102D1000002008BD003C0240024A136801331360E2
:102D2000704700BF388F0020014B1868704700BF04
:102D3000388F002037B50190FFF7F6FF019C631C28
:102D4000054618BF0134FFF7EFFF401BA042FAD33E
:102D500003B030BD074AD36823F4E0631B041B0CA7
:102D600043F0BF63000243F4003300F4E060034328
:102D7000D360704700ED00E030B5174BDC68C4F35A
:102D80000224C4F10703251D042B28BF0423062DAC
:102D90004FF0010505FA03F303F1FF338CBF033C49
:102DA00000241940A14005FA04F4013C2240002807
:102DB00042EA01024FEA0212AFBF00F1604000F0A8
:102DC0000F00064BD2B2A5BF00F56140D2B21A5433
:102DD00080F8002330BD00BF00ED00E014ED00E0FE
:102DE0004209012300F01F0003FA00F0014B43F8F1
:102DF0002200704700E100E070B50668049C756C25
:102E000044EA034305F040452B4373640368DA63E7
:102E100043680268B3F5403F30D186681EB1012E89
:102E200003D121F07F41916370BD022E01F47F0335
:102E300001F47F45CCB207D1D90CAD0AC90241EAF1
:102E4000451141EAD401EEE7032E01F07F400AD19B
:102E5000DB0CED0A9B0243EA451343EAD403C10F9E
:102E600043EAC131DFE7190D2D0B090241EA0511D3
:102E700041EA1411030F41EA0331D4E7D16070BD78
:102E8000704710B5044640B390F8393003F0FF02A4
:102E90001BB980F83820FFF7F3FF2268616802232E
:102EA00084F83930136823F440330B4313602268ED
:102EB000A168536B23F007030B4353632268E16857
:102EC000136C23F47F5323F03F030B431364002060
:102ED0000123E06384F8393010BD012010BD704734
:102EE00073B590F83840012C05464FF0020414D019
:102EF00080F839400126069C80F838600094FFF77E
:102F00007BFF2A68136843F40C5313602A68136824
:102F100033431360002002B070BD2046FBE773B559
:102F200015461A4690F83830012B04464FF002033C
:102F300017D080F839300368012680F838605D6169
:102F4000079B0093069BFFF757FF2268136843F423
:102F50000C5313602268136833431360002002B0DF
:102F600070BD1846FBE738B50268136823F0050307
:102F700043F0040313600446FFF7D6FE05462368BA
:102F8000186810F0010009D11A6822F40C521A6076
:102F9000012384F8393084F8380038BDFFF7C4FEC7
:102FA000401BB0F57A7FEAD9E36B43F02003E3637B
:102FB0000320002384F8390084F8383038BD70B518
:102FC00005682A6842F004022A60012908BF0368E4
:102FD000044614BF243503F11C05FFF7A5FE064681
:102FE000286810F020000AD12268136823F4645383
:102FF0001360012384F8393084F8380070BDFFF77E
:1030000093FE801BB0F57A7FEAD9E36B43F020038F
:10301000E3630320002384F8390084F8383070BD5E
:1030200010B5044608B9012010BD174B1B6B1902DF
:1030300015D42046FFF753FF23680020186023684B
:103040001861236898612368D861236858622368EF
:103050005863E06384F8380084F8390010BD0368D1
:10306000196811F0010104D0FFF77DFF0028E0D0BE
:10307000D9E75A6A920602D5FFF7A1FFF6E7DB69A6
:103080009B06D6D50121F7E70038024070B590F8CD
:103090003830012B4FF002032CD0012280F8382069
:1030A0000A01851880F83930EB692E6AA3F109040A
:1030B000012C6C6A056894BF04F07F44240644EA3E
:1030C00006442343164EB9B96C6A344023436B62FD
:1030D000036882699A61C369093B012B04D8436A7A
:1030E000026823F07F439362012380F83930002384
:1030F00080F83830184670BDEC6934402343EB61EA
:10310000831804689A692261DB69093B012BEBD8BB
:1031100000EB011102684B6A23F07F431362E3E77F
:10312000F0FFFC002DE9F74F704ADFF8C8B1DFF877
:10313000C8A1DFF8C8E100234FF0010C0C680CFABD
:1031400003FC0CEA0404A44540F0B8804D6825F067
:103150001005022D14D14FEAD30800EB880803F0C4
:103160000709D8F820504FEA89090F2606FA09F610
:1031700025EA06060D6905FA09F53543C8F8205019
:103180004FEA43084D6806684FF0030909FA08F949
:103190006FEA090905F0030506EA090605FA08F5CC
:1031A000354305604E6826F01006013E012E11D809
:1031B0008568CE6809EA050506FA08F62E4386609A
:1031C000456825EA0C0C4D68C5F300159D4045EA9D
:1031D0000C054560C56809EA05098D6805FA08F51A
:1031E00045EA0905C5604D68ED0067D50025404EEC
:1031F0000195766C3E4F46F480467E647E6C06F404
:1032000080460196019E23F0030606F1804606F5EE
:103210009C3603F00308D6F808904FEA88084FF070
:103220000F0CA7F560570CFA08FCB84229EA0C0C01
:1032300021D005F1804505F50135A84245D005F5B9
:103240008065A84243D0584543D0504543D070458F
:1032500043D005F58055A84241D005F58065A842C8
:103260003FD005F58065A8423DD005F58065A842B0
:103270000CBF09250A2505FA08F545EA0C05B560D5
:103280004F681568E643FF034CBF25433540156082
:103290004F685568BF034CBF2543354055604F68A4
:1032A0009568FF024CBF2543354095604F68D5684F
:1032B000BF0254BF06EA05042C43D4600133102B2F
:1032C0007FF43AAF03B0BDE8F08F0125D3E70225C4
:1032D000D1E70325CFE70425CDE70525CBE7062574
:1032E000C9E70725C7E70825C5E700BF003C01403F
:1032F00000380240000C024000100240001402405E
:103300000AB1816170470904FBE743695940416193
:1033100070470268536913F480630DD06FF48063C3
:1033200053610423036420220023036380F83C30AC
:1033300080F83D2001207047184670472DE9F8437A
:10334000044617469946C1F307488EB22568B8F17E
:10335000010F0CBF6B69AB6936EA030314BF012090
:10336000002008B9BDE8F8836B695A0513D52B68AE
:1033700043F400732B6023686FF480625A61042366
:10338000236420220023236384F83C3084F83D200A
:103390000120BDE8F8837B1CD8D04FB90023202240
:1033A000236384F83C3084F83D200320BDE8F88393
:1033B000FFF7BAFCA0EB09008742C7D2EEE72DE980
:1033C000F843089E044690461F46C1F307498DB254
:1033D0002368B9F1010F0CBF5B699B6935EA0303F0
:1033E0000CBF01230023434502D00020BDE8F88331
:1033F0007B1CEDD05FB900232022236384F83C308E
:1034000084F83D2084F83E300320BDE8F883FFF7C0
:103410008BFC801B8742DBD2EDE770B504460D467E
:10342000164623685B691B0601D5002070BD204647
:10343000FFF76FFFA8B96A1CF3D065B9236C43F09E
:103440002003236420220023236384F83C3084F883
:103450003D20032070BDFFF767FC801B8542E0D252
:10346000ECE7012070BD00002DE9FF411546026820
:103470000B9E9846136843F4807313600F460096C2
:103480000A9B00224FF001110446FFF798FF68B92C
:1034900023680A9A1C4907F0FE071F61204633463D
:1034A000FFF74CFF30B1236C042B18D0032004B07D
:1034B000BDE8F081236803905A6903929B690393E6
:1034C00032460A99039B2046FFF7A7FF48B1236CB9
:1034D000042BEBD12268136843F4007313600120BE
:1034E000E5E7B8F1010F236802D1EDB21D61DEE717
:1034F0002A0A1A610A9932462046FFF78EFF0028F1
:10350000E5D12368F1E700BF020001002DE9FF418A
:10351000164602680B9D9846136843F48063136057
:103520000268136843F4807313600F4600950A9B8A
:1035300000224FF001110446FFF741FF80B92368D4
:103540002E49FFB207F0FE021A6120462B460A9A66
:10355000FFF7F4FE40B1236C042B01D1012000E001
:10356000032004B0BDE8F081236803905A690392F8
:103570009B6903932A460A99039B2046FFF74DFF58
:1035800040B1236C042BEBD12268136843F4007321
:103590001360E3E7B8F1010F236824D1F6B21E618E
:1035A0002A460A992046FFF738FF02460028E8D14C
:1035B00021680B6843F480730B60204600950A9BDA
:1035C0004FF00111FFF7FBFE0028C9D123680A9ACA
:1035D0000A4947F001071F6120462B46FFF7AEFE60
:1035E0000028B8D1BDE7320A1A610A992A46204656
:1035F000FFF713FF0028C4D12368CFE702000100C2
:1036000070B504460D4616462068436913F0400322
:1036100001D0002070BD4269D2060BD56FF01002B8
:1036200042612022236484F83C30236384F83D20E7
:10363000012070BD5DB9236C43F020032364202377
:1036400084F83D30002384F83C30032070BDFFF740
:103650006BFB801B8542D7D2EDE770B504460D4663
:10366000164623685B695B0701D5002070BD2046C4
:10367000FFF74FFEA8B96A1CF3D065B9236C43F07D
:103680002003236420220023236384F83C3084F841
:103690003D20032070BDFFF747FB801B8542E0D231
:1036A000ECE7012070BD704738B5044600286AD0A9
:1036B00090F83D3003F0FF021BB980F83C20FFF783
:1036C000F2FF2268242384F83D30136823F00103BD
:1036D000136000F06DFC23682C4AB0FBF2F25A60D4
:1036E00094E822002A4B9D4285BF4FF496735343C2
:1036F000531C4FF47A7284BFB3FBF2F301330B62B5
:1037000094E80A00224A934225D85B00B0FBF3F00C
:10371000C0F30B03032B98BF0420C861216AE3693F
:1037200022680B431360E168236922680B439360AE
:103730006369A16922680B43D3602268136843F070
:103740000103136000202023206484F83D302063AF
:1037500084F83E0038BDA2684AB903EB4303B0FBCE
:10376000F3F0C0F30B0363B140F40040D5E7192236
:103770005343B0FBF3F0C0F30B0313B140F44040EC
:10378000CBE70120C9E7012038BD00BF40420F0050
:10379000A0860100704710B5044698B10268242342
:1037A00080F83D30136823F001031360FFF7F2FF48
:1037B0000020206484F83C0084F83D00206384F8F5
:1037C0003E0010BD012010BD2DE9F34704469A4686
:1037D000884691460C9EFFF7A7FA94F83D30202BBF
:1037E000054603D0022002B0BDE8F08700901923FF
:1037F000012240492046FFF7E2FD0028F2D194F86B
:103800003C30012BEED0012384F83C3023681A6849
:10381000D0075EBF1A6842F001021A60226813687E
:1038200023F400631360212384F83D30402384F89F
:103830003E300A9B63620027BDF82C302764638505
:103840002D4BE362638D23850195009653464A46CE
:1038500041462046FFF708FE00282DD0236C84F84F
:103860003C70042B07D10120BDE7FFF7D6FD20B146
:10387000236C042B37D00320B5E7636A2268591CF8
:1038800061621B781361628D238D013A92B2013B14
:1038900062859BB222682385516949070CD55BB1CB
:1038A000636A591C61621B781361238D013B238578
:1038B000638D013B9BB26385238D2A4631462046AA
:1038C000002BD2D1FFF7C9FE0028D1D1226813689E
:1038D00043F400731360202384F83D3084F83C00E7
:1038E00084F83E007FE72268136843F40073136096
:1038F000B9E700BF020010000000FFFF2DE9F0470C
:10390000044686B09A460D469146109FFFF70CFA82
:1039100094F83D30202B064604D00225284606B0F8
:10392000BDE8F0870090192301227A492046FFF76D
:1039300046FD0028F1D194F83C30012BEDD0012355
:1039400084F83C3023681A68D2075EBF1A6842F0D8
:1039500001021A602268136823F4006313602223B3
:1039600084F83D30402384F83E300E9B63624FF074
:103970000008BDF83C30C4F840806385664BE362C4
:10398000638D238529460196009753464A46204673
:10399000FFF7BCFD054630B1236C84F83C80042B56
:1039A00050D10125BAE7228D2368B2B902905A6935
:1039B00002929A690292029A1A6842F400721A609C
:1039C000DFF85881238D002B2FD1202284F83D2051
:1039D00084F83C3084F83E30A0E7012A0BD11A6805
:1039E00022F480621A60236803905A6903929A69EC
:1039F0000392039AE0E7022A10D11A6822F4806247
:103A00001A602268136843F400631360236804900B
:103A10005A6904929B690493049BD1E705905A6903
:103A200005929B690593059BCAE7032B54D8012B8C
:103A30000AD1324639462046FFF7E2FD10B3236C27
:103A4000202BAED1032569E7022B00963B464FF0B1
:103A500000024146204623D1FFF7B1FC0028F1D1F6
:103A60002268136843F400731360636A5A1C62622D
:103A7000226812691A70238D013B2385638D013BF7
:103A80009BB26385636A5A1C6262226812691A706B
:103A9000238D013B2385638D013B9BB2638591E7B9
:103AA000FFF78DFC02460028CCD121680B6823F477
:103AB00080630B60636A591C61622168096919702F
:103AC000238D0096013B2385638D013B9BB263856B
:103AD00041463B462046BFE7324639462046FFF77F
:103AE0008FFD0028ABD1636A5A1C6262226812699A
:103AF0001A70238D2268013B2385638D013B9BB2A5
:103B0000638553695B077FF55DAF636A591C61622A
:103B1000BCE700BF020010000000FFFF040001002E
:103B200090F83D0070470000F7B5044610B9012039
:103B300003B0F0BD0368D8073FD42368990700F1AC
:103B4000888023681E0700F1CA8023685D072ED590
:103B500000230193AB4BAC4D1A6C42F080521A64B7
:103B60001B6C03F080530193019B2B6843F480731B
:103B70002B60FFF7D9F806462B68DA0540F1D180B3
:103B8000A268A04B012A40F0D3801A6F42F00102D4
:103B90001A67A368002B00F0E080FFF7C5F8994D85
:103BA000064641F288372B6F9B0740F1CF80A26910
:103BB000002A40F0E2800020BAE7924B9A6802F0B7
:103BC0000C02042A07D09A6802F00C02082A0AD1D3
:103BD0005B685A0207D58B4B1B689B03ADD56368A6
:103BE000002BAAD1A3E76268864BB2F5803F13D1C0
:103BF0001A6842F480321A606368E3B1FFF794F800
:103C0000804D06462B689F0397D4FFF78DF8801BE5
:103C10006428F7D903208BE7B2F5A02F1A6803D1E7
:103C200042F480221A60E3E722F480321A601A68B4
:103C300022F48022DFE7FFF777F8724D06462B6803
:103C400098037FF57AAFFFF76FF8801B6428F6D9E9
:103C5000E0E76C4B9A6812F00C0F07D09A6802F0FC
:103C60000C02082A12D15B6859020FD4654B1A68FE
:103C7000920703D5E268012A7FF459AF1A682169D7
:103C800022F0F80242EAC1021A605AE7E2685F4B8A
:103C9000B2B101221A60FFF747F85A4D06462B6869
:103CA0009B0707D52B68226923F0F80343EAC20378
:103CB0002B6046E7FFF738F8801B0228EFD9A9E709
:103CC0001A60FFF731F84F4D06462B689F077FF5C6
:103CD00038AFFFF729F8801B0228F6D99AE7626906
:103CE0004B4B7AB101221A60FFF71EF8454D06468C
:103CF0006B6F98073FF529AFFFF716F8801B022876
:103D0000F6D987E71A60FFF70FF83E4D06466B6F4E
:103D100099077FF51AAFFFF707F8801B0228F6D93D
:103D200078E7FFF701F8801B02287FF625AF71E7DF
:103D3000052A1A6F03D142F004021A6725E722F020
:103D400001021A671A6F22F0040221E7FEF7ECFF66
:103D5000801BB8427FF627AF5CE7FEF7E5FF294DF1
:103D6000064641F288372B6F98077FF520AFFEF7A4
:103D7000DBFF801BB842F6D94CE7224DAB6803F05D
:103D80000C03082B3FF4D3AE224E0023022A3360EB
:103D90002AD1FEF7C9FF07462B6899011ED4226A73
:103DA000E3691343626A43EA8213E26A43EA026305
:103DB000A26A144C5208013A43EA02436B600123A1
:103DC0003360FEF7B1FF054623689A013FF5F3AE75
:103DD000FEF7AAFF401B0228F6D91BE7FEF7A4FF57
:103DE000C01B0228D8D915E7FEF79EFF04462B68B2
:103DF0009B017FF5E0AEFEF797FF001B0228F6D986
:103E000008E700BF00380240007000400000474251
:103E1000800E47426000474208B513498B6803F0A3
:103E20000C03042B03D0082B03D0104808BD104806
:103E300008BD4A684B68496813F4800314BF0C48F6
:103E40000A48C1F3881118BF002302F03F02A1FB0A
:103E50000001FCF7D3F9044B5B68C3F30143013362
:103E60005B00B0FBF3F008BD003802400024F40012
:103E700000127A002DE9F0410D46044610B90120E8
:103E8000BDE8F081464B1A6802F00F028A422AD33D
:103E900023689E072FD42368D90743D4404B1A6860
:103EA00002F00F02954269D323685A076FD4236842
:103EB0001B0707D53B4A2169936823F4604343EA13
:103EC000C1039360FFF7A8FF364B374A9B68C3F3E3
:103ED0000313D35CD840354B18600120FEF778FB04
:103EE0000020BDE8F081CAB21A701B6803F00F030E
:103EF0009942C4D1CCE7580741BF2A4A936843F49A
:103F0000E05393602368274A13F0080F1EBF93689D
:103F100043F4604393609368A16823F0F0030B437C
:103F20009360B8E762681F4B012A1DD11B6813F428
:103F3000003FA4D01B4EB36823F003031343B360C8
:103F4000FEF7F2FE41F288380746B368626803F074
:103F50000C03B3EB820FA1D0FEF7E6FEC01B404579
:103F6000F3D90320BDE8F081911E01291B6802D816
:103F700013F0007FDDE713F0020FDAE7EAB21A7000
:103F80001B6803F00F039D427FF479AF8CE7054A6D
:103F9000E168936823F4E0530B43936087E700BF25
:103FA000003C0240003802403A7F000854000020E4
:103FB000044B054A9B68C3F38223D35C034A106811
:103FC000D8407047003802404A7F00085400002063
:103FD0000F2303600B4B9A6802F0030242609A6859
:103FE00002F0F00282609A6802F4E052C2609B68BC
:103FF000DB0803F4E0530361034B1B6803F00F037A
:104000000B60704700380240003C0240F7B503687F
:104010009A07044640F08A80236813F00C0F45D0BD
:10402000824D834E00232B60FEF77EFE07463368E9
:104030009B0000F1C08023685F0715D56369D6F83F
:10404000882021691B0602F0E04243EA81131343F2
:10405000C6F88830D6F88C30226A23F4F853013A37
:1040600043EA0223C6F88C3023681E0714D5704A31
:10407000A369D2F8881020691B0701F0706143EA38
:1040800080130B43C2F88830D2F88C30616A23F475
:1040900040330B43C2F88C3001232B60FEF744FE03
:1040A000634D06462B68980040F18C8023689A0681
:1040B00032D5002301935E4B5E4D1A6C42F0805264
:1040C0001A641B6C03F080530193019B2B6843F42B
:1040D00080732B60FEF728FE06462B68D90578D53D
:1040E000534D2B6F13F440737AD1A26A02F44073DC
:1040F000B3F5407F4E4B40F09580996822F07042B6
:1041000021F4F81122F440720A439A60A26A196FEE
:10411000C2F30B020A431A67206810F010001FBF99
:10412000454B94F82C201A60002042E0434D404E4D
:1041300000232B60FEF7F8FD074633681B0132D4DD
:104140002368DF0706D5A36862681B0743EA82136A
:10415000C6F884302368980715D5354AE368D2F845
:10416000841060681B0601F0E04143EA80130B43B2
:10417000C2F88430D2F88C10E36921F01F01013BB2
:104180000B43C2F88C3001232B60FEF7CDFD284D88
:1041900006462B6819013FF53FAFFEF7C5FD801BB2
:1041A0000228F6D904E0FEF7BFFDC01B0228C4D9DF
:1041B000032003B0F0BDFEF7B7FDC01B02287FF659
:1041C00036AFF5E7FEF7B0FD801B02287FF66AAF39
:1041D000EEE7FEF7A9FD801B02287FF67EAFE7E73A
:1041E000A26A02F4407293423FF47FAF2B6F144AED
:1041F0000121116023F44073002111602B672B6FA4
:10420000DA077FF572AFFEF78FFD41F28837064679
:104210002B6F9B073FF569AFFEF786FD801BB84209
:10422000F6D9C5E79A6822F4F8126EE770004742A3
:104230000038024000700040E011474268004742E9
:10424000400E474270470268D36843F00103D360D1
:104250000268136843F00103136000207047704741
:1042600070477047704710B503681A699107044694
:104270000FD5DA6892070CD56FF002021A6101239C
:10428000037603689B699B077AD0FFF7E9FF002359
:10429000237623681A69500711D5DA6851070ED5BD
:1042A0006FF004021A610223237623689B6913F4DA
:1042B000407F20466AD0FFF7D3FF00232376236890
:1042C0001A69120710D5DA6810070DD56FF00802C9
:1042D0001A61042323762368DB69990720465BD0A3
:1042E000FFF7BEFF0023237623681A69D20611D593
:1042F000DA68D0060ED56FF010021A610823237613
:104300002368DB6913F4407F20464BD0FFF7A8FFFA
:104310000023237623681A69D10708D5DA68D20703
:1043200005D56FF001021A612046FEF795F9236862
:104330001A69100608D5DA68110605D56FF08002F3
:104340001A61204600F0B5F823681A69520608D5AC
:10435000DA68500605D56FF040021A612046FFF773
:1043600081FF23681A69910622D5DA6892061FD563
:104370006FF020021A612046BDE8104000F098B8A6
:10438000FFF76DFF2046FFF76CFF80E7FFF767FF41
:104390002046FFF766FF90E7FFF761FF2046FFF733
:1043A00060FF9FE7FFF75BFF2046FFF75AFFAFE78D
:1043B00010BD00002E4A0368904212D0B0F1804F29
:1043C0000FD0A2F57C4290420BD002F58062904261
:1043D00007D002F58062904203D002F57842904205
:1043E0001DD14A6823F070031343214A904204D13F
:1043F000CA6823F44073134328E0B0F1804FF7D02C
:104400001C4A9042F4D002F580629042F0D002F54E
:1044100080629042ECD002F578429042E8D0164A91
:104420009042E5D002F580629042E1D002F58062D0
:104430009042DDD0A2F598329042D9D002F5806248
:104440009042D5D002F580629042D1D003608B6853
:10445000C3620B688362064B984206D003F5806303
:10446000984202D00123436170470B690363F9E767
:1044700000000140000400400040014010B5044627
:10448000A0B190F8393003F0FF021BB980F8382052
:10449000FFF7D8FE022384F839302068211DFFF78A
:1044A00089FF012384F83930002010BD012010BDA0
:1044B00070477047DFF834D0002103E00C4B5B58A5
:1044C000435004310B480C4B42189A42F6D30B4A26
:1044D00002E0002342F8043B094B9A42F9D3FEF76D
:1044E000D9FB02F009FDFCF781F9704700000220BA
:1044F0001888000800000020C0000020C000002034
:10450000408F0020FEE72DE9F0478B88B1F900903D
:10451000B0F900A04B449BB20FFA83F8C24530DAE1
:104520008288524492B20FFA82FCE14529DAB1F94D
:104530000250CC88B0F902602C4424B2A64220DAA2
:10454000C7883744BFB20FFA87FE754519DACA45E6
:104550005446B8BF4C46B542B8BF3546E045C8BF23
:1045600013461B1B8380CA884B88048013449BB26C
:104570001AB29645B8BF3B465B1BC3804580BDE879
:10458000F0870023038043808380C380BDE8F087E9
:10459000C2680069131A584258417047C2680369DB
:1045A0009B1A002BDCBF82689B18012BCCBF00201C
:1045B00001207047026943681C2000FB02307047ED
:1045C00003681B69184770477047704770B501232F
:1045D00003720446406803689B6998470368082B88
:1045E00005461ED00BD8022B27D0042B11D0012B4F
:1045F00028D0174B174A18488D2102F03FFC402B5A
:1046000020D001D8202BF3E7802B1BD0B3F5807F7F
:10461000EEE72368017E5B6B204698472368DB6AE0
:1046200006E02368017E5B6B2046984723681B6B7E
:1046300029462046BDE870401847236820469B6BFA
:104640009847F3E7236820469B6B9847E6E700BF4F
:10465000527F000814800008777F000870B5044678
:104660000E46606803685B6898470028F9D10B4DD7
:10467000286803689B6E9847FCF786F860680368B3
:1046800031469B689847236820469B6A984728686C
:104690000368BDE870405B6E184700BF488E00207D
:1046A00008B5FCF75DF8BDE80840FCF763B810B545
:1046B0001421044602F0B4FB204610BD70B5044638
:1046C000406803681B689847054608B9237A73B9A0
:1046D000606803681B68984728B9236820461B6AEE
:1046E000BDE870401847BDE87040FCF757B86068F7
:1046F00003685B6998472572EAE7000010B5C36854
:104700000269D21A002ADCBF84681219012A17DD57
:1047100042681C2404FB032301F1180251F8044BE6
:1047200043F8044B9142F9D10A781A70C368826841
:10473000BFF35B8F01339342A8BF9B1AC36010BDC8
:10474000024B034A03483B2102F098FB9D7F00087F
:1047500044800008777F000810B503681B68044692
:10476000984728B1074B084A0848412102F086FBC8
:104770002369A268BFF35B8F01339342A8BF9B1AE2
:10478000236110BDC07F000892800008777F000879
:1047900010B50446406803681B68984748B9637AB7
:1047A0003BB1237A2BB9236820461B6ABDE8104031
:1047B000184710BD10B58260034C046000224160B0
:1047C000C260026110BD00BFF87F0008022B0ED04E
:1047D000032B12D0012B03D0B0F9002050187047E2
:1047E00003888088184400B2801A01387047038813
:1047F0008088184400B2401AF7E7B0F9000010446E
:104800007047022B08D0032B0DD0B0F90200012B0A
:1048100014BF8018401870474388C088184400B2FD
:10482000801A013870474388C088184400B2401A83
:10483000F7E7000010B5074B1B78012B08D1B1F941
:104840000030B0F9004003809388013B1B1B0B80B4
:1048500010BD00BF408E002013B50A4BB3F90040D5
:10486000094BADF80440B3F90020ADF80620002351
:104870006A46ADF80030ADF80230FFF7DBFF02B05A
:1048800010BD00BF3C8E00203E8E002010B50A4BAC
:104890001B78012B0A460DD1818803880B44014601
:1048A000013B21F8023BFFF7C5FFB0F90430C28895
:1048B0008280C38010BD00BF408E002007B50A4B28
:1048C000B3F90010094BADF80410B3F90020ADF8AE
:1048D000062000236946ADF80030ADF80230FFF73E
:1048E000D5FF03B05DF804FB3C8E00203E8E002017
:1048F00013B502AB0022019203F8052D02689468FB
:1049000001AAA04702B010BD408970478089704756
:104910008088704783798088184480B27047C07956
:10492000704708B50368DB68984740B190F90D20DF
:10493000837A002AB4BF4FF480700020184308BD6A
:104940000EB433B505AB53F8042B0193094B5C68E7
:1049500014F0010F4FEA64041BBF1B6801591D6866
:10496000CD58019B00212044A84702B0BDE830404B
:1049700003B07047040000200CB437B506AB53F801
:10498000042B0193094B5C6814F0010F4FEA640497
:104990001BBF1B6805591D68ED58019B2044A847A3
:1049A00003B0BDE8304002B0704700BF04000020F3
:1049B0000EB410B589B00BAB02A853F8044B0193A9
:1049C00000F0A8F92146019A02A800F0ACF902A86B
:1049D00000F052F9012440B10A2808BF013402A8AE
:1049E00008BF24B200F048F9F5E7A0B209B0BDE86D
:1049F000104003B0704700000EB4F0B588B00DABA6
:104A0000044653F8045B019302A800F083F9294699
:104A1000019A1F4D02A800F086F9002102A800F0BB
:104A200035F9002670B30A2827D023680146DB68D1
:104A30002046984708B3417B90F808E0A388C079E6
:104A400011F0400F14BF2F46002711F0200F14BFA4
:104A50004FF48072002247EA0E073A4311F0100F1C
:104A6000A3EB020314BF4FF480720022024312FA38
:104A700083F39BB2B342C8BF1EB2002102A800F06C
:104A800005F9CFE7B0B208B0BDE8F04003B0704719
:104A900000FEFFFF0EB430B588B00BAB054653F8EF
:104AA000044B019302A800F035F92146019A02A8AF
:104AB00000F039F9002102A800F0E8F8FF24A0B1C5
:104AC0000A280DD02B680146DB682846984738B184
:104AD0002B79027A9B1A03F0FF039C42A8BF1C4665
:104AE000002102A800F0D2F8E9E7204608B0BDE8AE
:104AF000304003B070472DE9F04F87B014461D4693
:104B000006466846884600F005F92A46214668466A
:104B100000F009F94FF0000A5746D1464146684671
:104B200000F0B4F8054608B10A2807D1B94500DD00
:104B30004F464FF000091EE0AA46EFE733680146F2
:104B4000DB683046984702460028F5D090F90D30D2
:104B500090F80AB08588002B336851469B6B30462D
:104B6000B4BF4FF480740024984744EA0B04044413
:104B70004C441FFA84F9002DDED1384607B0BDE859
:104B8000F08F0B6880691844704730B59AB1137B79
:104B90008BB1D27A94B213449C420CDAC26902EB14
:104BA000840532F824208A4202D195F9020030BDF2
:104BB0000134A4B2F0E7002030BD000030B587B06A
:104BC0000446BDF844500595BDF8405004959DF845
:104BD000345003959DF8305002959DF82C50019566
:104BE0009DF82850009502F0BDF8044B23600E9B01
:104BF000A3610F9BE361204607B030BDCC80000865
:104C0000F8B51C4D04460027012663683BB92168AE
:104C100000292CD0286803681B6B98476060237CB0
:104C20006BB1E3682BB11A881AB19A1CE26018883C
:104C3000F8BD28682774036821681B6B9847636870
:104C40001A88A2B1022A03F102026260EFD1286839
:104C500003681A6BA368191DA16019689047E0608A
:104C60000028D2D00388002BCFD02674CDE70020B7
:104C7000F8BD00BF488E002038B5838A458A43823C
:104C80000446FFF7BDFFA082284638BD70B50E462A
:104C90000546FFF7F1FF0C4A14680146134614B9A4
:104CA0005268D2070FD5586810F0010F4FEA600024
:104CB00005F112021CBF2B581C5928443346A44648
:104CC000BDE87040604770BD54010020002310B55E
:104CD0004360C36003740446FFF792FF608220467E
:104CE000FFF78EFF0A4AA0821368114613B9526873
:104CF000D2070CD5486810F0010F4FEA600018BFCA
:104D00002258204418BFD358BDE81040184710BDA2
:104D10005C01002010B50023044603604360FFF7E8
:104D2000D5FF204610BD82600160FFF7CFBF0000B5
:104D300008B5134B196831B9124B134A13484FF495
:104D40000D7102F09BF8124A03881288934204DA2C
:104D5000142202FB0313188908BD0E490988114467
:104D60008B4205DA9B1A0C4A126802EB0313F2E736
:104D70004FF6FE72934206BF084B1888002008BD0C
:104D8000588E002074810008178200084F810008A7
:104D9000548E0020568E0020508E00203C8E002025
:104DA00008B5134B196831B9124B134A13484FF425
:104DB000127102F063F8124A03881288934204DAEF
:104DC000142202FB0313588908BD0E4909881144B7
:104DD0008B4205DA9B1A0C4A126802EB0313F2E7C6
:104DE0004FF6FE72934206BF084B1888002008BD9C
:104DF000588E002074810008438200084F8100080B
:104E0000548E0020568E0020508E00203E8E0020B2
:104E100010B5224B1C6834B9214B224A22484FF46A
:104E2000177102F02BF8214A0B881288934210DA8E
:104E3000142202FB0343B3F90C40B3F90E10B3F98B
:104E400010205B8A0480C3F30C0341808280C380FE
:104E500010BD1749098811448B4209DA9B1A154A7B
:104E6000126802EB03131A6802605A68426010BDB0
:104E70004FF6FE7293420BD10F4BB3F900100F4B5C
:104E80008180B3F90020C28000230380438010BDDD
:104E90000023038043808380D9E700BF588E002021
:104EA00074810008B08100084F810008548E0020F2
:104EB000568E0020508E00203C8E00203E8E00201A
:104EC000164B1B6833B3164A0088128890420FDADB
:104ED000142202FB0033198A1A8991421CDB588A7A
:104EE000C0F30C005B899842ACBF002001207047E2
:104EF0000C4B1B88134498420CDA0B4B1B68801A2E
:104F000003EB0013B3F904101A89914204DBB3F9DF
:104F10000600E7E70020704701207047588E002008
:104F2000548E0020568E0020508E002008B5114B64
:104F3000196831B9104B114A11484FF4207101F032
:104F40009DFF03884FF6FF72934211D04FF6FE7219
:104F5000934203D10B4B1B68186C08BD0A4A1268B8
:104F600012B152F8230020B914225343C85808BD87
:104F7000002008BD588E002074810008E6810008DA
:104F80004F810008488E00204C8E002002884FF68A
:104F9000FD739A4219DC0E4B1B889A4215DA0D4BB1
:104FA0001968142303FB0213586878B10A49096889
:104FB00061B151F822204AB119895889484340000B
:104FC000033020F00300104470470020704700BFFA
:104FD000548E0020588E00204C8E002008B51C4BAB
:104FE00019680388A9B11B4A1288934205DA142272
:104FF00002FB0313D87C400908BD174909881144F6
:105000008B4206DA9B1A154A126802EB0313187BCF
:1050100008BD4FF6FE7293420CD1114B1B68986885
:1050200003681B6A984704280ED005D801280DD0C4
:10503000022807D0002008BD1028FBD01828F9D17D
:10504000012008BD052008BD062008BD032008BDBD
:10505000588E0020548E0020568E0020508E002046
:10506000488E002010207047704700002DE9F0475F
:105070000868496886B004AB04AC03C320461746F1
:10508000FFF71CFC4FF6FE739F4209D1334B1B7890
:1050900033B9334B334A34484FF4E27101F0EEFE3A
:1050A000324E306803689B6B984710F0010AB04697
:1050B00020D04FF6FE739F4208D13068036894E811
:1050C00006005B6D984706B0BDE8F08706AD25F891
:1050D0000C7D2846FFF72AFF36683368804628464D
:1050E0009F6DFFF725FE0090434694E8060030468A
:1050F000B847E8E730681E4E036806AD9B6A9847DC
:105100003488BDF91220BDF9103025F80C7D02FB62
:10511000043400EB44042846FFF708FF5746814655
:10512000BDF916309F4214DAD8F80000BDF91430EA
:1051300002684946D2F834A05B002246D047338843
:10514000284604EB4304FFF7F3FD013709EB400960
:10515000E6E72846FFF7EAFEB5E700BF448E0020E9
:10516000C58200082084000800830008488E0020C3
:10517000428E00202DE9F04F8DB088469DF8587082
:105180009DF85C501446002F47D01068516808AE57
:1051900003C6186859680AAE03C608A8FFF78EFB55
:1051A00021460AA8FFF772FBBDF92820BDF92A3075
:1051B000BDF82440BDF92C6014FB032108EB410429
:1051C000BDF82010DFF818820A44ADF82820BDF899
:1051D0002220D8F800001344ADF82A30BDF92E3053
:1051E000069303689B6B9847FF2F19D010F0040FAC
:1051F0001AD0D8F80000BDF82A3001680495BDF82F
:1052000024500295B6B2BDF8185003970195009648
:105210000D6CBDF828202146A8470DB0BDE8F08FE1
:1052200015B910F0010FE3E7D8F8000003681B6A16
:105230009847694BBDF92A101D88BDF92820FF2F1A
:1052400001FB052500EB4505994600F0A68044EAE0
:10525000050212F0030FC7F5807054D1F20752D443
:10526000BDF824E01EF0010E4DD10222079396FBFB
:10527000F2F89346C8F10008069B9E4580F2A5808F
:105280004FF00009B1452EDA296854F8042B0B0AB7
:105290004FEA122C03F0F813434301F01F1A0CF0ED
:1052A000F81C07FB0C3C00FB0AFA02F01F1307FB7B
:1052B00003A31B0A490903F01F130CF0F82C520931
:1052C00001F03F114CEA030C02F03F124143434B03
:1052D00007FB021203EAD2024CEA020245F8042B51
:1052E00009F10209CEE7079B1B8808EB530305EB86
:1052F0008305BDF9243093FBFBF3434404EB8304A3
:105300000EF1010EB8E726EAE6735B00DFF8D490F1
:1053100007934FF00008069B984556DAAA464FF0CF
:10532000000CB44529DABAF8001034F81C2001EA60
:10533000090302EA090E434301F4FC6B07FB0E3E2E
:1053400000FB0BFB02F4FC6307FB03B301F01F013E
:105350001B1202F01F02414309EA2E2E03F4FC63E4
:1053600007FB02124EEA030EC2F304224EEA020EBB
:105370002AF802EB0CF1010CD3E7174B079A1B88B4
:105380009B1B02EB43031D44BDF924309B1B02EB26
:1053900043031C4408F10108BDE74FEA460A002711
:1053A000069B9F4211DAD8F80000036822465E6B24
:1053B00029465346B047B9F8003005EB4305BDF91F
:1053C0002430013704EB4304EAE7054B186803680F
:1053D0005B6A984721E700BF428E0020E007E007A4
:1053E000488E002000F8FFFF2DE9F04F15468BB0E6
:1053F00099463BB1B1F9043023B1B1F90630002B25
:1054000040F08C800BB0BDE8F08F10F0080F11D089
:105410001868BDF8264001680194BDF82440CDF815
:1054200008900094CC6CBDF82230BDF820202946AD
:10543000A047E7E71868BDF924400368BDF9268056
:105440001B6A98473F4ABDF920101688BDF92230E3
:10545000B9F1FF0F06FB031300EB430016464FEABA
:10546000440A24EAE47141D005F4784E05F4FC675F
:1054700005F01F0509FB05F30693DFF8D0B007928E
:105480004B00C9F5807609FB0EFE09FB07F7059373
:10549000002545453CDA81464FF0000CA4451CDA56
:1054A000B9F8002002F4FC6302EA0B0106FB037367
:1054B00006FB01E11B0A0BEA112103F4FC630B4319
:1054C00002F01F01069A06FB0121C1F304210B43E0
:1054D00029F8023B0CF1010CE0E7079B059A1B88B9
:1054E000CAEB4303134418440135D2E749000022B4
:1054F00042450DDA0023A34203DA20F813500133AA
:10550000F9E73388CAEB43030B4418440132EFE751
:105510000D4B186803685B6A984773E70868496829
:10552000094C08AB03C308A8FFF7C8F92068036853
:105530009B6B9847B9F1FF0F23467FF466AF10F0DD
:10554000020F64E7428E0020488E002000F8FFFF23
:1055500006EE900A07EE901A9DED007A77EEE67A55
:1055600006EE102AE7EE876AF0EE667A06EE903ACB
:1055700076EEC66A9DF80830A6EE876ADDED016A10
:1055800036EE677A9FED076AE6EE877A07EE103A05
:10559000B8EEC77AC6EE076A67EEA67A17EE900AEB
:1055A000704700BF00007F432DE9F04F2DED0E8BBB
:1055B00099B01E46BDF8D03015939DF8D4300593B0
:1055C000319B329CDDF8CC90002716A89046B3F9A9
:1055D0000820B3F90C30ADF85E308A46ADF858704B
:1055E000ADF85A70ADF85C20FFF768F9309B35686C
:1055F0001868B4F90030B9F900E0E918401BAEEBC7
:10560000010C604540F3C586B9F80490F1440FFAE7
:1056100089F9494500F3BD86B4F90240726996EDF7
:10562000076A98ED09CAD8ED0BCAD6ED0A7A96ED4D
:105630000D7ADAF800B02244DAF8044004FB025490
:10564000BDF8D8208242A8BF024606EE902AF8EEA6
:10565000E69AD8ED0D6A0C92B7EE00DA29EE8CCA04
:1056600069EEACCA69EEA69ACDEE066A1C448E4578
:105670000BEB440437EEACBA77EE29BA76EE0CAAFF
:1056800067EEA67A27EE267A01DC0E972AE00C9ABE
:105690009CFBF2F106EE901A4A43F8EEE66AACEB98
:1056A000020600290E96ECEE26AAACEEA6BAE9EEAA
:1056B000A6BA13DD7AEECC7A3BEEE97AF5EE407AC3
:1056C000F1EE10FA18BFCDEE276A7BEE6C7A08BFB8
:1056D000F0EE4D6A67EEA67A27EE267A801A04EB82
:1056E00042041544EA1802449145BCBFA9EB0300EB
:1056F000401B002840F34D860C9A0C9B90FBF3F363
:105700000D9302FB130310931BB90D9B1092013BE9
:105710000D93319BDFED40DA1B680893059BC3F5C1
:10572000807309930D9B002B03DC109B002B40F32F
:1057300030868DEE2A8A0C9B0D99F0EE676A6BEE2F
:10574000088AFEEEC86A2BEE888A78EEE77A16EEB3
:1057500090AAFEEEC87AF0EE476A38EE477A17EE66
:10576000902ABEEEC87A92FBF3F317EE102A0A9342
:105770000C9B92FBF3F30C9A0B93109B0029C8BF70
:10578000134606930E9BFEEEC86A002B16EE90BAE7
:105790000DDD0A9A02FB03AA0B9A04EB430402FBF9
:1057A00003BB069B0E9A9B1A069300230E935FEA97
:1057B0002A432FD4BDF95C0083422BDA5FEA2B43E6
:1057C00028D4BDF95E108B4224DA069B0A9A013B6D
:1057D00003FB02A212141DD482421BDA0B9A03FBB4
:1057E00002B31B1416D48B42B4BF002301230793CA
:1057F000159B0B2B00F2E782DFE813F051055203F3
:10580000F802DB02E502E502E502E5027D02D901CC
:10581000770110000123EAE70000803D00230F9389
:105820000F9A069B934240F3CA8207994FEA2A4295
:105830004FEA2B4379B1002AC0F25081BDF95C10C8
:105840008A4280F24B81002BC0F24881BDF95E1084
:105850008B4280F24381BDF95C0003FB0023089A70
:1058600052F8236002EB830506F0FF1755F820205D
:10587000696805EB8000350E06F47F466F436E4382
:10588000360A3F0A436807F0FF1706F47F4047EAED
:105890000006080E01F0FF1701F47F414743414322
:1058A0003F0A090A01F47F4107F0FF170F4302F096
:1058B000FF18110E02F47F4201FB08F84A434FEA39
:1058C0001828120A02F47F4208F0FF1848EA02087A
:1058D00003F0FF191A0E03F47F4302FB09F9534347
:1058E0004FEA19291B0A03F47F4309F0FF1949EA1B
:1058F0000309CAF3033309EE103A07EE905A06EE95
:10590000900AF8EEE77AB8EEC99AF8EEE66A29EE60
:105910002D9A76EEE76A07EE101AE9EE267ACBF3B7
:105920000333390C06EE902AB8EEC77AF8EEE66A31
:105930000AEE103A76EEC76AB8EECAAAA9EE267A3F
:105940004FEA19434FEA18422AEE2DAA37EE677A3A
:10595000300CEAEE077A8DED01AAFCEEE77A8DEDC8
:10596000009ACDED117A07EE903AF8EEE77A9DF8BD
:105970004450029517EE903A07EE902AF8EEE77A37
:1059800017EE902A07EE901AF8EEE77A17EE901AC3
:1059900007EE900AF8EEE77A17EE900AFFF7D8FDC7
:1059A000C9F3072307EE903AF8EEE77AC8F3072227
:1059B00017EE903A07EE902AF8EEE77AC7F3072140
:1059C00017EE902A07EE901AF8EEE77A0EEE100A1C
:1059D000C6F3072017EE901A07EE900AF8EEE77A62
:1059E000029517EE900A8DED01AA8DED009AFFF752
:1059F000AFFD5FFA89F307EE903AF8EEE77A5FFAC7
:105A000088F217EE903A07EE902AF8EEE77AF9B2AC
:105A100017EE902A07EE901AF8EEE77A0EEE900A4B
:105A2000F0B217EE901A07EE900AF8EEE77A0295B8
:105A300017EE900A8DED01AA8DED009AFFF788FD13
:105A400007EE900A002D49D0FCEEE77ABCEEEE7A24
:105A500017EE903A17EE102AFCEECE7AC3F3C40389
:105A6000C2F3850243EA421217EE903AFF2DC3F3C8
:105A7000C40342EAC32302D1059AFF2A2BD00F9A0E
:105A800034F81200BDF8142012FB05F520F4FF6273
:105A9000C5F5803123F4FF6622F007024A4326F061
:105AA000070605FB0626D04A00F4FC6702EA164604
:105AB0004F4303F4FC6205FB027200F01F00120C5E
:105AC00003F01F03414302F4FC6205FB031316437A
:105AD000C3F3044333430F9A24F812300A9B9A44C9
