:020000040800F2
:100000000000022019620008293400082B3400087F
:100010002D3400082F34000831340008000000009F
:100020000000000000000000000000000131000896
:100030003334000800000000913100083534000816
:100040006962000869620008696200086962000864
:100050006962000869620008696200086962000854
:100060006962000869620008696200086962000844
:100070006962000869620008696200086962000834
:100080006962000869620008696200086962000824
:100090006962000869620008696200086962000814
:1000A0006962000869620008696200086962000804
:1000B00069620008696200086962000869620008F4
:1000C00069620008696200086962000869620008E4
:1000D00069620008696200086962000869620008D4
:1000E00069620008696200086962000869620008C4
:1000F00069620008696200086962000869620008B4
:1001000069620008696200086962000869620008A3
:1001100069620008696200081D340008696200080D
:100120006962000869620008696200086962000883
:100130006962000869620008696200086962000873
:100140006962000869620008696200086962000863
:100150006962000869620008696200086962000853
:100160006962000869620008696200086962000843
:100170006962000869620008696200080000000006
:080180006962000869620008D1
:1001900010B5054C237833B9044B13B10448AFF3C1
:1001A00000800123237010BD040100200000000026
:1001B000BCC200080C4B43B10C480D4910B5AFF35D
:1001C00000800C48036823B910BD0A48036833B99E
:1001D0007047094B002BF7D0BDE810401847064B7D
:1001E000002BF5D0184700BF00000000BCC200087B
:1001F00008010020040100200000000053B94AB9A2
:10020000002908BF00281CBF4FF0FF314FF0FF301E
:1002100000F07AB9ADF1080C6DE904CE00F006F8F3
:10022000DDF804E0DDE9022304B070472DE9F04772
:100230008C460D460446089E002B51D18A42174633
:100240006DD9B2FA82FEBEF1000F0BD0CEF1200CB8
:1002500001FA0EF520FA0CFC02FA0EF74CEA050C36
:1002600000FA0EF44FEA174A250CBCFBFAF81FFA05
:1002700087F90AFB18CC45EA0C4508FB09F3AB42A9
:100280000AD9ED1908F1FF3280F02381AB4240F228
:100290002081A8F102083D44ED1AA4B2B5FBFAF0A2
:1002A0000AFB105544EA054400FB09F9A14509D9A8
:1002B000E41900F1FF3380F00A81A14540F2078183
:1002C00002383C44A4EB090440EA08400021002E17
:1002D00061D024FA0EF4002334607360BDE8F08727
:1002E0008B4207D9002E54D0002186E82100084611
:1002F000BDE8F087B3FA83F1002940F08E80AB426D
:1003000002D3824200F2FA80841A65EB03050120D1
:10031000AC46002E3FD086E81010BDE8F08712B939
:100320000127B7FBF2F7B7FA87FEBEF1000F34D111
:10033000EB1B3A0C1FFA87FC0121B3FBF2F8250CEA
:1003400002FB183345EA03450CFB08F3AB4207D91F
:10035000ED1908F1FF3002D2AB4200F2D1808046A5
:10036000ED1AA3B2B5FBF2F002FB105543EA0544C7
:100370000CFB00FCA44507D9E41900F1FF3302D2BD
:10038000A44500F2B8801846A4EB0C0440EA0840EB
:100390009DE731463046BDE8F087CEF1200405FAEE
:1003A0000EF307FA0EF720FA04F83A0C25FA04F4D3
:1003B00048EA0308B4FBF2F14FEA184502FB114486
:1003C0001FFA87FC45EA044501FB0CF3AB4200FA37
:1003D0000EF409D9ED1901F1FF3080F08A80AB42AB
:1003E00040F2878002393D44EB1A1FFA88F5B3FBCF
:1003F000F2F002FB103345EA034500FB0CF3AB427D
:1004000007D9ED1900F1FF386FD2AB426DD9023830
:100410003D44EB1A40EA01418FE7C1F1200722FA7F
:1004200007F88B4005FA01F448EA030320FA07FEB7
:100430004FEA134CFD404EEA040EB5FBFCF94FEABF
:100440001E440CFB19551FFA83F844EA054509FBC5
:1004500008F4AC4202FA01F200FA01FA08D9ED18E8
:1004600009F1FF3043D2AC4241D9A9F102091D4440
:100470002D1B1FFA8EFEB5FBFCF00CFB10554EEA4F
:10048000054400FB08F8A04507D9E41800F1FF3542
:1004900029D2A04527D902381C4440EA0940A4EBE0
:1004A0000804A0FB02894C45C6464D4615D312D020
:1004B00056B1BAEB0E0364EB050404FA07F7CB4020
:1004C0001F43CC40376074600021BDE8F0871846B8
:1004D000F8E69046E0E6C245EAD2B8EB020E69EBD8
:1004E00003050138E4E72846D7E7404691E781460F
:1004F000BEE7014678E702383C4445E7084608E78E
:10050000A8F102083D442BE7704700BF000000003F
:1005100001F0FF01102A2BDB10F0070F08D010F8B4
:10052000013B013A8B422DD010F0070F42B3F6D1B8
:10053000F0B441EA012141EA014122F007047FF0D1
:1005400000070023F0E80256083C85EA010586EA28
:10055000010685FA47F5A3FA87F586FA47F6A5FA64
:1005600087F68EB9EED1F0BC01F0FF0102F0070270
:1005700032B110F8013B013A83EA010313B1F8D11B
:100580000020704701387047002D06BF35460338FC
:10059000073815F0010F07D1013015F4807F02BF35
:1005A000013015F4C03F0130F0BC0138704700BF86
:1005B0007047A0F10400FBE7704710B504460AF04D
:1005C0006EFE204610BDA0F10400F6E710B5002233
:1005D0008260044AC16002F1080420320460426073
:1005E00010BD00BF1CC300087047704770477047BC
:1005F000704700F093B810B504460AF050FE20464C
:1006000010BD000010B5044600F090F8014B2360C7
:10061000204610BD4CC3000800220260704770479E
:100620007047704710B504460AF039FE204610BDE9
:1006300010B50446D0F84C01FFF7F1FF2046BDE8A5
:10064000104007F001BA10B50446D0F8340158B193
:100650000368DB68984738B1D4F8340103689B68B5
:1006600098470023C4F8343110BD000010B504468B
:1006700000F02CF9014B2360204610BD80C3000818
:1006800070B51E460368BDF910505B6B0446984771
:100690002368314620469A6B9047236829462046B6
:1006A000DB6BBDE87040184781807047C1807047A0
:1006B00070B503680446DB6A1546984723682946E7
:1006C00020461B6BBDE8704018470181704741818F
:1006D000704770477047704770477047C38810B4C1
:1006E000D21A83885DF8044BC91A036812B25B6D95
:1006F00009B218474FF6FF7383810384438413685C
:10070000C361106070477047704790F825201AB198
:1007100090F8242002B1186070477047704710B5F8
:1007200004460AF0BCFD204610BD00002DE9FF473D
:10073000044626460DF11008002508F01BF94FF677
:10074000FF77434B28F8047DE56346F8403B4FF0C4
:100750000109404BA4F84450A4F84650A4F848506E
:10076000A4F84A50A4F84C50A4F84E50A4F85050A5
:10077000A4F852506565A565E56584F86450236466
:100780004146304684F86590A4F8667084F8687035
:1007900006F071FF304B2364304BA4F86A50A4F884
:1007A0006C50A4F87450A4F87650A4F87850A4F8CB
:1007B0007A50A4F87C50A4F87E50A4F88050A4F895
:1007C0008250C4F88450C4F88850C4F88C50C4F8DF
:1007D000985084F89C50236741460223304684F8A1
:1007E000959084F89490A4F89E70A4F8A07084F872
:1007F000A270ADF80C3006F0B5FC4FF4A073009376
:100800002A46F02329463046FFF73AFF04F1700AE2
:100810002A462946304606F083FC5046D922232139
:10082000FFF746FF4246ADF8085002A95046251D85
:10083000ADF80C9006F05AFE3146284605F046FE0B
:100840002846514605F042FE204604B0BDE8F08738
:10085000BCC3000864D50008D0D30008BCD400088D
:1008600070477047416070477047704701230372BB
:1008700070477047C2688368406812F0010F4FEA02
:10088000620218BF8158104418BFCB5818474368FC
:100890002BB183682BB9C06800F00100704718467F
:1008A00070470120704710B504460AF0F8FC204656
:1008B00010BD10B504460AF0F2FC204610BD10B57C
:1008C00004460AF0ECFC204610BD000070B504465A
:1008D00016460D4607F014FA0B4AC4F84861146036
:1008E0000A4A226000230A4AC4F83031C4F834317D
:1008F000C4F83821C4F83C31C4F84031C4F844315C
:10090000C4F84C51204670BDAC92002008C40008C9
:10091000F0C30008064BC0F840310023C0F8443152
:1009200000F59C73C0F83C01C0F83431704700BF3B
:10093000750A00082DE9F04707469068DDF820A009
:10094000994603681B6A884614469847A32805D829
:10095000424B434AC22143480AF0BEFC6068036828
:100960001B6A98470F2803D83F4B3D4AC321F2E743
:10097000E06803681B6A98470B2803D83B4B384A4A
:10098000C421E8E707F09CF907F0A0F9D9F80000C6
:1009900010B10368DB689847D9F8000010B103680C
:1009A0001B689847386810B103685B699847D8F8A6
:1009B000000010B103685B689847386810B103689D
:1009C0001B689847D8F8000010B103689B689847E7
:1009D000E068036800215B6A9847054620B1002360
:1009E00043600372224B0360A068036800215B6AC6
:1009F0009847064608B1FFF705FE606803680021C6
:100A00005B6A9847044610B13146FFF7DFFDC9F82D
:100A10000050C8F800403E60ECB1231DCAF8003019
:100A2000C4F808A03368F4633046DB68984723684D
:100A300020461B6898472946304608F019F92B686C
:100A400028461B69984707F03BF903689B6A98475B
:100A50002046BDE8F0872346E0E700BF5CC40008FD
:100A60009FC60008EAC4000859C50008FCC5000874
:100A700044C4000807B5D0F84C310093D0F84821A1
:100A8000044B00F598710448FFF754FF03B05DF87C
:100A900004FB00BFA8920020A49200207047000031
:100AA00030B5144D2C78BFF35B8F14F0010489B07E
:100AB0001DD128460AF0E4FBC8B13F2306930E4B34
:100AC00005930E4B0493042301220D4901930794CF
:100AD0000A230394029400940A4808F0EBF828468D
:100AE0000AF0DAFB084A094906480AF0C2FB054841
:100AF00009B030BD2001002098DD000814DF000897
:100B000000DF00082C010020000000209D0A0008E2
:100B100030B5144D2C78BFF35B8F14F0010489B00D
:100B20001DD128460AF0ACFBC8B13F2306930E4BFB
:100B300005930E4B0493042301220D49019307945E
:100B400014230394029400940A4808F0B3F828464A
:100B50000AF0A2FB084A094906480AF08AFB054840
:100B600009B030BD2401002010DF0008B4DE000809
:100B70003CDF00084C010020000000209D0A000816
:100B800030B5144D2C78BFF35B8F14F0010489B09D
:100B90001DD128460AF074FBC8B13F2306930E4BC3
:100BA00005930E4B0493042301220D4901930794EE
:100BB00028230394029400940A4808F07BF82846FE
:100BC0000AF06AFB084A094906480AF052FB054840
:100BD00009B030BD28010020FCDE00089CDD0008C3
:100BE0002CDF00086C010020000000209D0A000896
:100BF00010B504460AF053FB204610BD704701298A
:100C000006D003D3022905D000207047FFF780BF2C
:100C1000FFF7B6BFFFF744BF10B504460AF03FFB2D
:100C2000204610BD00487047B8C700080320704731
:100C30000048704784DF040801207047004870476F
:100C40008C01002010B5FFF763FF044C2060FFF714
:100C500097FF6060FFF724FFA06010BD8C010020AB
:100C600038B50A4B18800A4B00221A60FFF7E0FFE4
:100C70000546FFF7E3FF0446FFF7DEFF054B1D6067
:100C8000054B1C60054B188038BD00BFA801002033
:100C9000AC010020B0920020B8920020B492002055
:100CA000014B00221A607047AC010020032208B5F6
:100CB0000021012001F090F8074A106020B10023C4
:100CC0001A46194601F0ACF801210022084601F04D
:100CD00083F8024B186008BDB0010020B401002069
:100CE000034800234FF0FF321946006801F004BAB0
:100CF000B0010020034800231A461946006801F09D
:100D00008FB800BFB0010020034800231A461946DF
:100D1000006801F0F1B900BFB001002007B502A9D9
:100D2000002341F8043D084B186801F091F9019B3C
:100D30003BB1064B4FF080521A60BFF34F8FBFF3A9
:100D40006F8F03B05DF804FBB001002004ED00E0FC
:100D500070B5084D084C00231A462946206801F05A
:100D6000CBF92946206800234FF0FF32BDE87040E0
:100D700001F0C2B90C000020B4010020024B186839
:100D80000368DB68184700BF5092002008B5054C87
:100D90002046802103F035FC4FF47A7003F046F9C9
:100DA000F6E700BF0000024000B589B000F0E4F8AB
:100DB00000F02EFB1422002103A80AF002FB0024FD
:100DC000174B02941A6B174842F001021A631B6B0F
:100DD00003F00103224602938021029B03F00CFCE6
:100DE0008023039303A901230E480493032505944C
:100DF000069403F013FB23464FF480620A490194E2
:100E000000950A4801F0D4FA23464FF4806208495D
:100E100001940095074801F0CBFA01F0A1FBFEE731
:100E20000038024000000240F4C700087D0D0008B1
:100E3000FCC700088D0D0008704770477047704769
:100E4000012070470C2070470C2303FB0100083081
:100E500070470C2303FB01000830704701207047E6
:100E6000A4207047A42303FB010008307047A4238B
:100E700003FB0100083070470120704710207047C5
:100E800000EB01100830704700EB0110083070478C
:100E90000846FFF73FBD000010B5034B0360044652
:100EA00005F068FA204610BD78C8000810B5044661
:100EB000FFF7F2FF20460AF0F2F9204610BD0000CD
:100EC00010B5034B0360044605F054FA204610BDEC
:100ED00044C8000810B50446FFF7F2FF20460AF0A8
:100EE000DEF9204610BD000010B5034B0360044638
:100EF00005F040FA204610BD10C8000810B50446A1
:100F0000FFF7F2FF20460AF0CAF9204610BD0000A4
:100F100010B5084B044640F8D83BFFF7BDFF04F17D
:100F20002C00FFF7CDFF04F11400FFF7DDFF204692
:100F300010BD00BFACC8000810B50446FFF7E8FFBD
:100F400020460AF0ACF9204610BD10B504460AF060
:100F5000A6F9204610BD000008B5024B1B689B6A2D
:100F6000984708BD4005002008B5024B1B68DB6AA6
:100F7000984708BD400500202DE9F04F9FB0A04CD8
:100F8000A04E002503F02AF80295236C43F080530D
:100F90002364236C03F080530293029B9A4B0395C6
:100FA0001A6842F440421A601B6803F440430393FA
:100FB000039B4FF4803312934FF4800302274FF0CA
:100FC000010B18934FF4A87208234FF0070811A8DB
:100FD00019930193CDF844B01A9217971B97CDF847
:100FE000708004F081F80F220C924FF4A0594FF456
:100FF000805205210CA810920D970E95CDF83C90CB
:1010000004F018FA814A824832601D22019BF26185
:1010100040F20D127262036040F24312C023B262CA
:10102000036140F2171204234FF0090AC6F818B002
:10103000F2624FF0030B40F2471283614FF400332A
:101040003263C6F814A0C6F820B086F8365086F889
:10105000345086F83550436204F0B8FA0495756050
:10106000B560F5603561636C6A4843F08063636422
:10107000636C03F080630493049B0595236B43F436
:1010800000032363236B03F400030593059B06957C
:10109000236B43F480532363236B03F48053069341
:1010A000069B0795236B43F001032363236B03F037
:1010B00001030793079B0895236B3B432363236B33
:1010C0003B400893089B0995236B43F0040323637B
:1010D000236B03F004030993099B0A95236B43F0E8
:1010E00008032363236B03F008030A930A9B0B9501
:1010F000236B43F020032363236B03F020030B9344
:101100000B9B0C95236B43F040032363236B1297D7
:1011100003F040030C930C9B139541F65803119375
:1011200011A90E231593149703F078F94FF4706307
:101130001193394B0193184611A903F06FF94FF43D
:10114000986211A93548119203F068F9482211A953
:1011500033481192A4F5005403F060F94FF4806213
:1011600011A93048119203F059F94FF40C6211A9FA
:101170002046119203F052F9019BCDF844B0184675
:1011800011A9CDF854A003F049F911A92046CDF8D2
:10119000449003F043F9304603F0E8FE224A234B23
:1011A00013601B6898471195FFF7D6FE13951290B0
:1011B000FFF7DAFE4FF050431A93FF2316934FF4D4
:1011C000C06318931490159717958DF874508DF887
:1011D00075508DF87650CDF86480FFF7BDFE1B90FA
:1011E000FFF7C2FE2A4611A91C90304603F038FFD3
:1011F000304603F05FFF00F0DBF91FB0BDE8F08F71
:10120000003802406804002000700040006801407F
:1012100010050020000002400004024000080240C7
:10122000000C024000140240400500202400002071
:101230002DE9F743614E3578BFF35B8F15F001055B
:101240008046894617461C4656D130460AF018F8A3
:10125000002851D0A3B25A4CBDF82800C4F804802D
:10126000012284F8452084F8462084F8542084F82C
:101270005720544AC4F80890E760256165612583CA
:101280006583A583E58325846584A58484F8265039
:10129000A562A5856563A563E563256484F844506C
:1012A00084F8555084F8565084F8585084F85950B2
:1012B00084F85A5084F85B5084F85C5025661460BA
:1012C000414A84F865501380404A1080404A1570A6
:1012D000404A83421380404AACBF00230123108060
:1012E00084F8303030463D4B236009F0D5FF3C4A4E
:1012F0003C49204609F0BDFF31483B4F05F0E2FB79
:10130000FFF790FC0446FFF791FC0D9B009301460C
:101310000C9B0B9A204607F01DFE344B344A1A6092
:101320000020FFF79DFC334807F07EFD3B78BFF3BC
:101330005B8FDB0738D4384609F0A2FF002833D092
:101340002D4E2E4B336006F1EC0806F1140006F129
:101350002C0506F1D8047060B560F460C6F8108002
:1013600005F00AF8264B7361284605F005F8254B71
:10137000F362204605F000F8234BC6F8D830324619
:1013800006F50F714046FFF771F906F50F70FFF78C
:1013900043F94046FFF7BEFA384609F07DFF104A90
:1013A0001A49304609F065FF06F08AFC01460448F8
:1013B00005F0CAFA024803B0BDE8F083B801002086
:1013C000BC01002050920020449200204692002050
:1013D000489200204A9200204C92002010CA000837
:1013E000000000203B0E000824020020BC920020D8
:1013F000F00F00201000002028020020ACC80008D8
:1014000010C8000844C8000878C80008110F000878
:10141000F0B585B000264FF4A073039602960196AE
:101420000093124A12491348F023FFF701FF124BB1
:1014300001251D700368009504465F6F10222B463E
:101440004FF05041B84784F8586084F846600B4E1E
:1014500084F84550022384F85430304600F064F894
:10146000266184F85C5005B0F0BD00BF1400002078
:10147000180000204405002034100020E40F002054
:1014800010B5044609F00BFF204610BD10B5044608
:1014900009F005FF204610BD10B5044609F0FFFE17
:1014A000204610BD38B5124C124D13491348224640
:1014B00009F0DFFE284600F061FA2246104928466E
:1014C00009F0D7FE22460F490F4809F0D2FE0F4817
:1014D0000F4900234360224683600E4B036009F0EE
:1014E000C8FE22460C490D48BDE8384009F0C1BE8F
:1014F0000000002044050020FD0B00081000002023
:10150000451600083F0E000814000020E40F0020DC
:101510003D0E0008C0C80008390E00081800002061
:101520004068704741607047054A136843F0807314
:101530001360044A136843F001031360704700BF4F
:10154000FCED00E0001000E0521A02EB5302B2FB87
:10155000F3F07047014B1868704700BF041000E0BB
:1015600010B5036804461B6931B19847A2686368E7
:101570009B1A1844606010BD9847A06010BD000021
:10158000044A0121115408B902F02ABB0128FBD0FA
:10159000704700BF35100020044A0021115408B9DB
:1015A00002F010BB0128FBD0704700BF35100020AF
:1015B00008B5002002F0CAFA012002F0C7FA0020A4
:1015C000FFF7EAFF0120BDE80840FFF7E5BF000094
:1015D000034B1B5C0BB1FFF7DFBFFFF7D1BF00BFB1
:1015E0003510002010B5FFF7B7FC0446FFF7BCFC30
:1015F00081B2A0B2BDE8104002F046BC37B56846E3
:101600000D46144602F062FCBDF8000030B1BDF892
:1016100002302B60BDF804302360012003B030BDE0
:1016200003681B6C184703685B6A18477047000023
:10163000034B1B78002B40F2EF1018BF00207047BF
:101640003910002010B5064B03600446054802F02F
:1016500063FE054B4FF08062C3F88820204610BD22
:1016600000C90008F40F002000E100E010B50446B6
:10167000FFF7E8FF204609F012FE204610BD0000EB
:1016800010B5074C074B2360204602F076FD064B51
:101690002361064B6361064B4FF080629A6010BD78
:1016A000F40F002000B00240B51600082D16000807
:1016B00000E100E0024B1B68586803685B6918474B
:1016C000509200202DE9F3410D68202D0C4600F0CA
:1016D000A480402D00F0A1802A1F56425641802D43
:1016E00000F09D80A5F580735D425D415E4B1B68F7
:1016F000986803681B6A98472368402B00F0A38012
:1017000000F28F80042B00F09780202B00F09B804C
:1017100010280CBF4FF0020E4FF0010E0021B4F85C
:101720000CC0B4F81280514BA8EB0C02DA60102800
:10173000A289D3F800C059600CBF022701279F601F
:10174000A8EB0208DCF8002022F440321143CCF868
:101750000010D3F800C0C3F82CE0DCF8341021F0FE
:1017600007013943CCF83410DCF8402022F47F52D2
:1017700022F03F0242EA0802CCF84020228AA189E6
:10178000521A9A620EB9002D34D0227EFF2A1FBF52
:1017900002221A63227E5A6304BF00221A6305B331
:1017A000102894F818E0626953D102F01F014FF03D
:1017B0001F0CC2F3C420C1EB012191FBFCF141EAF3
:1017C0000E61C0EB0020C2F3451290FBFCF041EA31
:1017D0000041C2EB02223F2092FBF0F241EA0222DA
:1017E0005A63A189628A2148DF61521A9A610021F5
:1017F00002F0C8FD01211D4802F0C4FDA389E28961
:1018000006B94DB30093A3680192616817481A4660
:1018100002F001FD02B0BDE8F081012662E701257A
:1018200064E7802B12D0B3F5807F7FF471AF4FF067
:10183000090E4FF4003172E710280CBF4FF0020E72
:101840004FF0010EF5E74FF0000EF2E74FF00A0EF1
:10185000EFE742EA0E62C3E700926168A2680348BC
:1018600002F0BAFCD6E700BF50920020F40F00202F
:10187000F7B5404B1B68986803681B6A0D4698478C
:1018800010286B69297E71D103F01F02C2EB02227E
:101890001F2092FBF0F4C3F3C42244EA0164C2EBBC
:1018A0000222C3F3451392FBF0F244EA0244C3EB75
:1018B00003233F2293FBF2F3022244EA03242B6822
:1018C000A9892D48082B6B8A8260A3EB0101C160B6
:1018D000AF890CBF4FF400364FF44036DF1B03686E
:1018E0004660196821F4403131431960D0F800E0B6
:1018F000DEF8341021F007011143CEF83410DEF881
:10190000403023F47F5323F03F033B43B6F5003FC1
:10191000CEF840301FD10123036309234463C3621F
:10192000A9896B8AC2615B1A8361002102F02AFDDA
:101930000121114802F026FDB6F5003FAB89EA8986
:101940000DD1A968019200930A460B460A4802F09D
:1019500062FC03B0F0BD0023C2628362E8E700923C
:101960002146AA68044802F037FCF2E743EA016422
:101970000122A4E750920020F40F002070B5054624
:101980002C460A4B0C30002668602E726E7244F8AA
:10199000203B6022214605F0B1FB05F52A63666114
:1019A0001C34A342FBD1284670BD00BF00C900080B
:1019B000012380F8641080F8653070474068036840
:1019C0001B68184700207047436B0BB10846184747
:1019D00070470000014B986A704700BF846801405F
:1019E000024B0122996243F8602C704784680140E1
:1019F000064B586CDB68C3F30A0382B201339A4288
:101A0000A6BFC01A80B20020704700BF0068014026
:101A1000034B902283F85A2383F85823704700BF62
:101A200000E100E00849094ACB680948C3F30A030A
:101A3000013B9BB213800A69C2F30A02013A028099
:101A40000B6403234B637047006801403C10002087
:101A50003A100020064B4FF08072C3F888204FF0F8
:101A60008062C3F888204FF00072C3F88820704766
:101A700000E100E0054B4FF080729A604FF0806209
:101A80009A604FF000729A60704700BF00E100E07A
:101A900010B5044605F006FA23682046D3F88430D2
:101AA000BDE810401847000008B531B90A4B0B4A91
:101AB0000B484FF4437109F00FFC8163C26309497D
:101AC0000364003218BF01220A700033064A18BFAF
:101AD0000123137008BD00BF61C9000804CB0008D2
:101AE00099C900084E9200204F920020F8B5541E6C
:101AF000A6B21F2E9DF8185009D80124B44014F046
:101B0000803F144F144E09D114F00B0F17D1134B13
:101B1000134A14484FF4397109F0DEFB3F883488CA
:101B2000D2087C43624381637BB11144C16375B1C8
:101B3000114401640C4A13700C4B1D70F8BD3C88B5
:101B400062430732D2103488ECE7C363EFE70564E1
:101B5000F0E700BF449200204692002044C90008EC
:101B6000B0CA000899C900084E9200204F92002088
:101B700030B590F8642090F830309A420F4B1A78C4
:101B80000DD05AB90E4A0F490F4814880F4D0C80DA
:101B9000018811802980048001221A7030BD002A3A
:101BA000FCD00948074A01881180054A074D14886E
:101BB0002C80118004800022EFE700BF48920020B3
:101BC000449200204A920020469200204C9200202D
:101BD00000F1080343604FF0FF32C360036100234C
:101BE00082600360704700230361704743684B6065
:101BF0009A688A609A685160996008610368013345
:101C0000036070470A68531C30B50AD103695A68EB
:101C10004A6091608B60596008610368013303601A
:101C200030BD00F108035C682568AA42EFD3234663
:101C3000F9E7426881680369916082684168516090
:101C40005A68904204BF82685A6000220261186894
:101C500001381860704770B51546026C866B0446F3
:101C600042B905689DB9406800F066FF65600136BD
:101C7000A66370BD6DB9806809F098FBA368226CFB
:101C800013446268A360934201D32368A3600020D9
:101C9000EDE7C06809F08AFB236CE26821685B42CB
:101CA0001A448A42E2603EBF62689B18E360022DDC
:101CB000EDD10EB1013EEAE73046D8E7034610B455
:101CC0001A6C084662B1D9685C681144A142D960B7
:101CD00024BF1968D960D9685DF8044B09F066BB68
:101CE0005DF8044B704770B5044601F01BFA94F898
:101CF000455004F124066DB2002D14DCFF2384F856
:101D0000453001F031FA01F00DFA94F8445004F135
:101D100010066DB2002D12DCFF2384F84430BDE8BC
:101D2000704001F021BA636A002BE7D0304600F022
:101D30001BFE08B100F0A4FE013D6DB2DCE7236993
:101D4000002BE9D0304600F00FFE08B100F098FEFD
:101D5000013D6DB2DEE7000038B50D46044640B9DE
:101D60004FF0500383F31188BFF36F8FBFF34F8F92
:101D7000FEE701F0D7F9206CE36B2268A2604343D1
:101D8000D1181B1A13446160E3600021FF23A16393
:101D900084F8443084F8453095B9236963B104F17F
:101DA000100000F0E1FD38B10A4B4FF080521A608C
:101DB000BFF34F8FBFF36F8F01F0D6F9012038BD0D
:101DC00004F11000FFF704FF04F12400FFF700FF07
:101DD000F2E700BF04ED00E0F8B50D4617460646F1
:101DE00040B94FF0500383F31188BFF36F8FBFF3F7
:101DF0004F8FFEE74843503001F0BAF8044648B12F
:101E000055B92060E663256401212046FFF7A4FF51
:101E100084F84C702046F8BD00F150030360F1E7F0
:101E20002DE9FF47894601921F46044640B94FF00D
:101E3000500383F31188BFF36F8FBFF34F8FFEE71B
:101E4000002940F08880036C002B00F084804FF064
:101E5000500383F31188BFF36F8FBFF34F8FFEE7FB
:101E6000019E002E00F082804FF0500383F3118812
:101E7000BFF36F8FBFF34F8FFEE7019D1DB901F0D8
:101E800073F9002058E016B902A800F0AFFD01F088
:101E90006BF900F0A5FB01F045F994F84430FF2BF5
:101EA00008BF84F8448094F84530FF2B08BF84F8BD
:101EB000458001F059F901A902A800F0A7FD00280A
:101EC00043D101F02FF9A66BE56B01F04DF9AE425D
:101ED00035D1019904F1100000F00EFD2046FFF706
:101EE00002FF00F01DFC38B94FF08053CAF80030F3
:101EF000BFF34F8FBFF36F8F012601F013F9A26B71
:101F0000E36B9A4201D3022FB7D13A4649462046A5
:101F1000FFF7A1FE636A1BB104F1240000F024FD69
:101F200038B1194B4FF080521A60BFF34F8FBFF397
:101F30006F8F01F019F9012004B0BDE8F087204649
:101F4000FFF7D1FE00F0ECFBD6E72046FFF7CBFE13
:101F500000F0E6FB95E7022F02D1E36B012B0AD1DB
:101F600000F094FD00283FF47BAF00264FF00008FE
:101F7000DFF814A0C1E74FF0500383F31188BFF3DB
:101F80006F8FBFF34F8FFEE704ED00E02DE9F843BC
:101F9000884691461F46044640B94FF0500383F3EC
:101FA0001188BFF36F8FBFF34F8FFEE709BB036C40
:101FB000FBB14FF0500383F31188BFF36F8FBFF372
:101FC0004F8FFEE704F1240000F0CEFC002834D04F
:101FD000B9F1000F31D00120C9F8000086F3118853
:101FE000BDE8F88301356DB284F8455025E0002046
:101FF000F4E7022F02D1E36B012B20D101F09AF913
:10200000EFF311864FF0500383F31188BFF36F8F06
:10201000BFF34F8FA26BE36B9A4201D3022FE6D13D
:1020200094F845503A466DB241462046FFF713FEFC
:102030006B1CD7D1636A002BC4D10120CEE74FF0CF
:10204000500383F31188BFF36F8FBFF34F8FFEE709
:1020500070B50D46044640B94FF0500383F3118824
:10206000BFF36F8FBFF34F8FFEE7036C43B14FF0A9
:10207000500383F31188BFF36F8FBFF34F8FFEE7D9
:1020800003680BB9436873BB01F054F9EFF3118691
:102090004FF0500383F31188BFF36F8FBFF34F8F5F
:1020A000A26BE36B9A4201D3002014E094F8453010
:1020B00001325BB2A2635A1C10D1636A0BB90120D2
:1020C00009E004F1240000F04FFC0028F7D0002DB7
:1020D000F5D00120286086F3118870BD01335BB212
:1020E00084F84530EBE74FF0500383F31188BFF3DA
:1020F0006F8FBFF34F8FFEE72DE9FF4788460192B0
:102100009946044640B94FF0500383F31188BFF35A
:102110006F8FBFF34F8FFEE7002940F0A580036C5F
:10212000002B00F0A1804FF0500383F31188BFF320
:102130006F8FBFF34F8FFEE7019E002E00F09A8055
:102140004FF0500383F31188BFF36F8FBFF34F8FAE
:10215000FEE7636AE660002B6DD004F124005FE0C7
:10216000019D1DB901F000F8284667E016B902A8E4
:1021700000F03CFC00F0F8FF00F032FA00F0D2FF73
:1021800094F84430FF2B08BF84F8447094F845302D
:10219000FF2B08BF84F8457000F0E6FF01A902A8F4
:1021A00000F034FC002852D100F0BCFFA56B00F019
:1021B000DBFF002D45D1236833B900F0B3FF606821
:1021C00000F074FC00F0D0FF019904F1240000F04D
:1021D00093FB2046FFF787FD00F0A2FA38B94FF0D5
:1021E0008053CAF80030BFF34F8FBFF36F8F0126C3
:1021F00000F098FFA56B002DB2D041462046E6685E
:10220000FFF75CFDB9F1000FA3D12368013DA56381
:1022100013B900F0E1FC6060236963B104F11000C0
:1022200000F0A2FB38B1154B4FF080521A60BFF39B
:102230004F8FBFF36F8F00F097FF012004B0BDE810
:10224000F0872046FFF74FFD00F06AFACFE72046FF
:10225000FFF749FD00F064FA00F064FFA56B00F0A1
:1022600083FF002DC3D17FE700F010FC00283FF46E
:1022700063AF00260027DFF804A0B9E704ED00E013
:1022800030B5074A002352F8335002EBC3041DB99E
:1022900042F83310606030BD0133082BF3D130BDFC
:1022A000F892002070B504460D46164600F03AFF3D
:1022B00094F84430FF2B04BF002384F8443094F892
:1022C0004530FF2B04BF002384F8453000F04CFF5D
:1022D000A36B2BB93246294604F1240000F026FBFB
:1022E0002046BDE87040FFF7FEBC0000064A1368B8
:1022F0001968064B19B94FF0FF321A60704712681F
:10230000D268D2685268F8E74410002030110020EB
:10231000F8B51B4B1B4E1D680446306804300F4651
:10232000FFF787FC334640B93168174EC96A3268F7
:102330000120884022EA00023260621C07D137B1D6
:10234000196812480431BDE8F840FFF74FBC2C442F
:102350001A68A542546007D90D4A10681968BDE88B
:10236000F8400431FFF74EBC0A4A1068196804317E
:10237000FFF748FC084B1A68944238BF1C60F8BD50
:102380007811002040100020001100205011002082
:102390004810002044100020301100204FF050035E
:1023A00083F31188BFF36F8FBFF34F8FFEE70000F9
:1023B0002DE9F84F4FEA820A804650460D4699466D
:1023C0000B9E00F0D5FD0746002800F09F8060209E
:1023D00000F0CEFD0446002800F0958052460763C9
:1023E000A521384608F0EDFF236BAAF1040A9A44B0
:1023F0002AF0070A6B1E04F134020F35597802F8EF
:10240000011B13F8011F09B1AB42F7D10A9D072D3B
:1024100028BF07254FF0000B271DE562E56438460D
:1024200084F843B0C4F850B0FFF7DDFBC5F10805F0
:1024300004F11800FFF7D7FBC4F858B02461A56178
:102440006462C4F854B084F85CB04A4641465046D1
:1024500000F03EFE206006B1346000F063FE324BB7
:10246000324E1A68DFF8F08001321A603568002DAC
:102470004FD134601B68012B1DD108EB05001435CA
:10248000FFF7A6FBA02DF8D1DFF8D090284D4846E5
:10249000FFF79EFB2846FFF79BFB2648FFF798FBBC
:1024A0002548FFF795FB2548FFF792FB244BC3F81F
:1024B0000090244B1D60244A2449136808680133A6
:1024C0001360E26A6364012505FA02F303431420F2
:1024D0000B6000FB02803946FFF788FB00F044FEEA
:1024E0001B4B1B6863B13368DA6AE36A9A4207D20E
:1024F000184B4FF080521A60BFF34F8FBFF36F8FAE
:102500002846BDE8F88F384600F08EFD4FF0FF35C5
:10251000F6E70F4B1B68002BCDD13368DA6AE36A0C
:102520009A4298BF3460C6E7EC10002040100020AB
:1025300018110020381100206411002050110020D3
:102540004410002048100020FC1000200011002042
:102550004C11002004ED00E04C100020041100207C
:1025600013B5194B01930024009423468022174988
:102570001748FFF71DFF012818D100F083FB012841
:1025800014D14FF0500383F31188BFF36F8FBFF363
:102590004F8F104B4FF0FF321A600F4B18600F4BEC
:1025A0001C6002B0BDE8104000F04EBE013008D102
:1025B0004FF0500383F31188BFF36F8FBFF34F8F3A
:1025C000FEE702B010BD00BF2C11002052CB000866
:1025D00011280008301100204C1100207811002033
:1025E000024A136801331360704700BFF8100020DF
:1025F000014B1868704700BF781100202DE9F84F93
:102600003C4B1B68002B53D13B4B1C6801341C60B6
:10261000BCB93A4B1A68126842B14FF0500383F3C9
:102620001188BFF36F8FBFF34F8FFEE7344A1968ED
:10263000106818601160334A136801331360FFF7A4
:1026400055FE314D314F2B689C424FF0000B3ED36D
:10265000DFF8A880DFF8C490D8F80020126872BBB9
:102660004FF0FF322A6032E006F1040A5046FFF7CD
:10267000E0FAB16A19B106F11800FFF7DAFAF06A68
:10268000D9F80030012202FA00F11943204BC9F8B1
:1026900000104FF0140E51460EFB0030FFF7A6FA63
:1026A0003868F16AC26A914228BF4FF0010BD3E744
:1026B000184A1368013313604FF0000B11E0D8F88B
:1026C0000020D268D66871688C42CDD229603A6801
:1026D0000F4BD16A14224A439A58022A28BF4FF05E
:1026E000010B0D4A1268002A18BF4FF0010B584623
:1026F000BDE8F88FF8100020781100204410002069
:10270000481000203411002030110020401000201B
:102710004C100020F41000207C110020001100203B
:102720002DE9F843314C236843B94FF0500383F34C
:102730001188BFF36F8FBFF34F8FFEE700F0F2FCFD
:102740002368013B236024682CB1002400F00CFDB9
:102750002046BDE8F883264B1B68002BF5D0DFF838
:10276000A890244FDFF8A480D9F80030E3B90CB169
:10277000FFF7BCFD204D2C6844B1204E0127FFF728
:102780003DFF00B13760013CF9D12C601B4B1B6849
:10279000002BDAD01A4B4FF080521A60BFF34F8FE4
:1027A000BFF36F8F0124D1E7D9F80C30DC68261D08
:1027B00004F11800FFF73DFA3046FFF73AFAE26AF3
:1027C0003968012505FA02F314200B4300FB02804F
:1027D00031463B60FFF70AFA0A4BE26A1B68DB6A84
:1027E0009A4224BF054B1D60BEE700BFF8100020D1
:1027F000EC10002000110020F41000207C110020BB
:1028000004ED00E040100020381100204C100020A2
:1028100008B5174E174C236863B9174B1B68012B7B
:10282000F8D9164B4FF080521A60BFF34F8FBFF3A9
:102830006F8FEFE7FFF7D4FE3568FFF771FF002DCC
:10284000E9D000F06FFCF368DD68281DFFF7F1F9AF
:102850000B4A1368013B13602368013B236000F0BF
:1028600083FC286B00F0E0FB284600F0DDFBD2E79C
:1028700064110020F01000204C10002004ED00E056
:10288000EC10002010B5174B1A68174B12B101223B
:102890001A6010BD1A60154B1B68B3FA83F3DBB2E4
:1028A000C3F11F03142212495A4388188C5844B9A3
:1028B0004FF0500383F31188BFF36F8FBFF34F8F37
:1028C000FEE744680832646844600A44944204BFE6
:1028D00062684260142202FB03135B68DA68054BEE
:1028E000D6E700BFF81000207C1100200011002066
:1028F0004C1000204010002010B50C4640B94FF09D
:10290000500383F31188BFF36F8FBFF34F8FFEE740
:10291000054B19681831FFF775F920460121BDE80C
:102920001040FFF7F5BC00BF4010002038B50D4641
:10293000144640B94FF0500383F31188BFF36F8FF3
:10294000BFF34F8FFEE7074B19681831FFF74EF9B9
:10295000002C21460CBF28464FF0FF30BDE8384020
:10296000FFF7D6BC4010002038B5C368DC6844B916
:102970004FF0500383F31188BFF36F8FBFF34F8F76
:10298000FEE704F118052846FFF753F9114B1B68C1
:10299000E3B9251D2846FFF74CF90F49E26A08689C
:1029A0000123934003430B600C4B1420294600FB8A
:1029B0000230FFF71BF90A4BE26A1B68DB6A9A4296
:1029C00083BF084B01201860002038BD2946064807
:1029D000EFE700BFF8100020001100204C1000208D
:1029E000401000207C1100203811002008B508B9E3
:1029F000FFF7D4FC034B1B680360034B1B68436069
:102A000008BD00BF341100207811002038B50D46F4
:102A1000044640B94FF0500383F31188BFF36F8F22
:102A2000BFF34F8FFEE741B94FF0500383F3118896
:102A3000BFF36F8FBFF34F8FFEE700F073FB0E4BBA
:102A400019682B685A1C10D00C4A206812689042F2
:102A5000626801D091420DD2881A83420AD95B1A6A
:102A600013442B602046FFF7C1FF002400F07CFBDD
:102A7000204638BD0124F9E77811002034110020E8
:102A8000014B01221A6070477C110020054B1B6826
:102A900033B1054B1B68002B0CBF02200020704790
:102AA000012070474C110020F81000202DE9F04162
:102AB0000446002838D01D4DC36A2A68D26A934262
:102AC00032D282691A4E002AA1BF2A68D26AC2F1A4
:102AD000080282611427426907FB03639A4220D1EE
:102AE00000F104084046FFF7A4F8124A48B9E06A2A
:102AF0004743F3592BB913680121814023EA0103AD
:102B000013602B681168D86AE062012383400B438D
:102B100013601423414603FB0060BDE8F041FFF75A
:102B200065B82B68DB6AC362BDE8F0814010002005
:102B30004C10002000110020F8B5044608B9002010
:102B4000F8BD224B1B68984208D04FF0500383F326
:102B50001188BFF36F8FBFF34F8FFEE7036D43B94B
:102B60004FF0500383F31188BFF36F8FBFF34F8F84
:102B7000FEE7C16AC26C013B91420365DFD0002BC6
:102B8000DDD1051D2846FFF754F8114E114A50B902
:102B9000E76A1421794373582BB913680120B840B0
:102BA00023EA00031360E36CE362C3F10801A1614F
:102BB0001168012404FA03F008431060142000FB9C
:102BC00003602946FFF712F82046F8BD40100020A8
:102BD0004C10002000110020044B1A681AB119682B
:102BE0000A6D01320A651868704700BF4010002066
:102BF000F8B50F4C00F096FA2568ADB90D4F0E4EA2
:102C00003846FEF7E5FF3046FEF7E2FF0B4B1F604C
:102C10000B4B2A460C210A201E60FFF7DDF82060CE
:102C200010B10849FFF72CFBBDE8F84000F09CBA52
:102C3000B4110020881100209C1100208011002078
:102C40008411002057CB0008914208B54160006113
:102C50000AD8D21A83699A420DD2084B011D18680E
:102C6000FEF7D0FF002008BD9A4201D2994202D25D
:102C7000011D034BF3E7012008BD00BF84110020B4
:102C80008011002007B5FFF7B3FF0D4B1B685BB148
:102C90000C4B0193022300934FF4807200230A49E6
:102CA0000A48FFF785FB40B94FF0500383F31188C2
:102CB000BFF36F8FBFF34F8FFEE703B05DF804FBE8
:102CC000B4110020B81100205CCB0008A52D00082D
:102CD00030B5154685B01A46034640B94FF050034B
:102CE00083F31188BFF36F8FBFF34F8FFEE70D4C57
:102CF000206880B105290191029503930DDCFFF74F
:102D0000C5FE0023022808BF089A206818BF1A468B
:102D100001A9FFF785F805B030BD002301A9FFF731
:102D200035F9F8E7B41100202DE9F3411B4D4FF0C0
:102D300000082B681A6832B9194A116829601360B3
:102D400002B0BDE8F081DB68DC681E68271D3846EC
:102D5000FEF76FFF636A20469847E369012BE8D1CD
:102D6000A36933449E4206D26360246139462868D1
:102D7000FEF748FFDDE70023CDF800803246194614
:102D80002046FFF7A5FF0028D3D14FF0500383F36F
:102D90001188BFF36F8FBFF34F8FFEE780110020C4
:102DA000841100202DE9F04F6C4DDFF8C08189B00F
:102DB0002F462B68D3F800B0BBF1000F42D0DB6880
:102DC000D3F80090FFF70CFCFFF712FC644B1A6875
:102DD000904282461E4637D20393FFF7A5FF039B1E
:102DE0000124C3F800A0002C7ED1BBF1000F60D0FD
:102DF000D14577D8FFF794FC3B68DB68D3F80CB07B
:102E00000BF10400FEF715FFDBF81C30012B1DD180
:102E1000DBF818104B46524649445846FFF714FF5A
:102E2000A0B1009423464A4621465846FFF750FF7A
:102E300060B94FF0500383F31188BFF36F8FBFF376
:102E40004F8FFEE7D946BDE70024CAE7DBF8243000
:102E500058469847DFF81091D9F8000000231A4629
:102E600005A9FFF749F90028A3D0059B002BF3DB48
:102E7000079C636913B1201DFEF7DBFEFFF7B8FB6B
:102E800033689842834601D2FFF74EFF059AC6F891
:102E900000B0092AE0D80123934013F4047A4AD100
:102EA00013F0C70F23D19B06D6D5204600F0BCF8FF
:102EB000D2E72C4B1B681A68B2FA82F252092A4BED
:102EC000A9EB0A011868FFF7EDF9FFF729FC0028C4
:102ED000C0D14FF08053C8F80030BFF34F8FBFF31D
:102EE0006F8FB7E72246EAE7FFF71AFCB2E7A1695E
:102EF000069B5A4619442046FFF7A6FE0028ABD091
:102F0000636A20469847E369012BA5D1A269069917
:102F1000CDF800A00A44534651462046FFF7D8FE9C
:102F2000002899D14FF0500383F31188BFF36F8FBE
:102F3000BFF34F8FFEE70699A16141B94FF05003EF
:102F400083F31188BFF36F8FBFF34F8FFEE75B46AC
:102F50005A4659442046FFF777FE7DE7801100204E
:102F6000B011002084110020B411002004ED00E015
:102F700070B50446FFF734FB2648016871B9264B4B
:102F8000264A23F0070313605160254A47F6F87577
:102F900082E8220083E82400012303602CB1083476
:102FA00063071CBF24F007040834621E47F6F6735B
:102FB0009A4207D8194A136859688C4204D81849AC
:102FC0008B4207D100251EE019680029F7D01A4668
:102FD0000B46F1E71968156811605968091B10293B
:102FE00005F108050AD91A1951605C6056680B4949
:102FF00008684468A6420AD810600A6009495B68FC
:103000000A68D21A0A60FFF78BFB284670BD01469A
:10301000EEE700BFC4910020C4110020C891002039
:10302000BC9100201C00002038B50446C8B1A0F1B6
:103030000805FFF7D5FA54F8040C0A4B1A685168D2
:1030400088420CD844F8082C074A1D6054F8043C08
:1030500011680B441360BDE83840FFF761BB1346AD
:10306000ECE738BDC89100201C0000200A4B1B680B
:10307000013308D04FF0500383F31188BFF36F8FF3
:10308000BFF34F8FFEE74FF0500383F31188BFF378
:103090006F8FBFF34F8FFEE72000002006480068C7
:1030A000006880F3088862B661B6BFF34F8FBFF344
:1030B0006F8F00DF00BF000008ED00E0DFF80C00BC
:1030C000016841F4700101607047000088ED00E084
:1030D0004FF0807340F8043C074B40F80C3C21F063
:1030E00001016FF0020340F8081C40F8202C40F862
:1030F000243C4438704700BF6D30000800000000D9
:10310000074B19680868B0E8F04F80F30988BFF3EF
:103110006F8F4FF0000080F311887047AFF300808D
:10312000401000204FF0500383F31188BFF36F8FDE
:10313000BFF34F8F0A4A13680133012B13600DD17F
:10314000084B1B6813F0FF0F08D04FF0500383F3B8
:103150001188BFF36F8FBFF34F8FFEE7704700BF3B
:103160002000002004ED00E0084A136843B94FF046
:10317000500383F31188BFF36F8FBFF34F8FFEE7C8
:10318000013B13600BB983F31188704720000020C6
:10319000EFF30980BFF36F8F154B1A681EF0100F05
:1031A00008BF20ED108A20E9F04F10604DF8043D73
:1031B0004FF0500080F31188BFF34F8FBFF36F8F34
:1031C000FFF760FB4FF0000080F3118808BC19681E
:1031D0000868B0E8F04F1EF0100F08BFB0EC108A7E
:1031E00080F30988BFF36F8F704700BFAFF3008093
:1031F0004010002008B54FF0500383F31188BFF34F
:103200006F8FBFF34F8FFFF7F9F918B1034B4FF0F2
:1032100080521A60002383F3118808BD04ED00E09A
:10322000064B4FF47A721B68B3FBF2F3044A013B7E
:103230001360044B07221A60704700BF94000020FF
:1032400014E000E010E000E013B5314B314A19689A
:10325000914208D14FF0500383F31188BFF36F8F71
:10326000BFF34F8FFEE71A682B4B9A4208D14FF0FD
:10327000500383F31188BFF36F8FBFF34F8FFEE7C7
:10328000264B1A78D2B20192FF221A701B78244A78
:10329000DBB28DF803309DF8033003F05003137058
:1032A000204B07221A6000219DF80300000602F15E
:1032B000FF3423D401B11A601A68120202F4E062EA
:1032C0001A60019B154ADBB21370174B1A6842F45F
:1032D00070021A601A6842F070421A60FFF7A0FF8D
:1032E000124B00221A60FFF7E9FE114A136843F0FF
:1032F00040431360FFF7D2FEFFF7B8FE9DF80320AE
:103300005200D2B28DF8032001212246CCE700BF43
:1033100000ED00E071C20F4170C20F4100E400E017
:10332000D0910020D491002020ED00E0200000206A
:1033300034EF00E0EFF305830F2B0ED9104A9B5CAE
:10334000104A12789A4208D94FF0500383F311883B
:10335000BFF36F8FBFF34F8FFEE70B4B0B4A1B681A
:10336000126803F4E063934208D94FF0500383F3EB
:103370001188BFF36F8FBFF34F8FFEE7704700BF19
:10338000F0E300E0D09100200CED00E0D4910020AB
:1033900010B5014688B00022362000F069FE3620C4
:1033A00000F09AFE00230293174B1A6C42F01002B1
:1033B0001A641B6C03F01003029301A903A8029B7B
:1033C00002F0E6F8069BC3B902F0D2F80F4C104B9E
:1033D000236040F2E733E3600E4BB0FBF3F00138BB
:1033E0000023606020462361A36002F0F9FE40B92B
:1033F000204602F0DBFD08B010BD02F0B9F8400035
:10340000E4E70120F7E700BF0038024038930020CE
:103410000010004040420F0000F0FABD014802F0E9
:10342000D5BD00BF389300207047FEE7FEE7FEE7FA
:10343000FEE77047024B1B780BB1FFF7DBBE70470E
:1034400034100020F02070474FF4A07070472920FE
:1034500000F04CBC282000F049BC08B500F0CEFBC1
:10346000CA2000F043FCC32000F024FC082000F038
:1034700021FC502000F01EFCCF2000F037FC002083
:1034800000F018FCC12000F015FC302000F012FC08
:10349000ED2000F02BFC642000F00CFC032000F079
:1034A00009FC122000F006FC812000F003FCE8205B
:1034B00000F01CFC852000F0FDFB002000F0FAFB72
:1034C000782000F0F7FBCB2000F010FC392000F052
:1034D000F1FB2C2000F0EEFB002000F0EBFB342091
:1034E00000F0E8FB022000F0E5FBF72000F0FEFB17
:1034F000202000F0DFFBEA2000F0F8FB002000F0C5
:10350000D9FB002000F0D6FBB12000F0EFFB00203B
:1035100000F0D0FB1B2000F0CDFBB62000F0E6FB56
:103520000A2000F0C7FBA22000F0C4FBC02000F07E
:10353000DDFB102000F0BEFBC12000F0D7FB102007
:1035400000F0B8FBC52000F0D1FB452000F0B2FB35
:10355000152000F0AFFBC72000F0C8FB902000F062
:10356000A9FB362000F0C2FBC82000F0A3FBF2202C
:1035700000F0BCFB002000F09DFBB02000F0B6FB8B
:10358000C22000F097FBB62000F0B0FB0A2000F04C
:1035900091FBA72000F08EFB272000F08BFB04207E
:1035A00000F088FB2A2000F0A1FB002000F082FB45
:1035B000002000F07FFB002000F07CFBEF2000F0FB
:1035C00079FB2B2000F092FB002000F073FB002021
:1035D00000F070FB012000F06DFB3F2000F06AFB63
:1035E000F62000F083FB012000F064FB002000F0D7
:1035F00061FB062000F05EFB2C2000F077FBC8206A
:1036000000F0C6FB262000F071FB012000F052FB09
:10361000E02000F06BFB0F2000F04CFB292000F0B5
:1036200049FB242000F046FB0C2000F043FB0E2059
:1036300000F040FB092000F03DFB4E2000F03AFB7B
:10364000782000F037FB3C2000F034FB092000F02C
:1036500031FB132000F02EFB052000F02BFB172080
:1036600000F028FB112000F025FB002000F022FBD9
:10367000E12000F03BFB002000F01CFB162000F0D6
:1036800019FB1B2000F016FB042000F013FB112097
:1036900000F010FB072000F00DFB312000F00AFBCA
:1036A000332000F007FB422000F004FB052000F06F
:1036B00001FB0C2000F0FEFA0A2000F0FBFA2820A3
:1036C00000F0F8FA2F2000F0F5FA0F2000F0F2FADF
:1036D000112000F00BFBC82000F05AFB292000F05D
:1036E00005FB2C20BDE8084000F000BB08B500F049
:1036F00085FA0321D32000F015FB80B208BD10B578
:10370000C4B202220321204600F070FB0A2000F020
:10371000B9FB20460022032100F068FB0220BDE82F
:10372000104000F0AFBB38B50446E4B200F032FB05
:103730000021204600F074FB01210546204600F0E0
:103740006FFB40EA052080B238BD10B5C4B24021FD
:10375000204600F065FB030607D54C21204600F00B
:103760005FFB003018BF012010BD204601224B2115
:1037700000F03CFB204600224B2100F037FB0020EC
:1037800010BD73B50423C4B20E461546D7210DEB08
:103790000302204600F060FB019B1BBA1A0DC3F325
:1037A0000B23328020462B8001224B2100F01EFB90
:1037B00000224B21204600F019FB02B070BD000032
:1037C00010B50B4A13789842044610D051788842BD
:1037D00003D110BD59B9012301E0002BFAD1D45413
:1037E00000F0D8FA2046BDE81040FFF788BF10BDB2
:1037F000D891002010B5C4B20921204600F010FB7A
:1038000040F00102D2B220460921BDE8104000F08C
:10381000EDBA10B5C4B20921204600F001FB092120
:1038200000F0FE022046BDE8104000F0DFBA38B5D7
:10383000C5B20C4628460A2100F0F2FA40EA04021A
:10384000D2B228460A21BDE8384000F0CFBA10B500
:10385000044600F0A1FA20461F21FFF7E8FF2046AA
:10386000BDE81040FFF7C6BF38B5C5B20C462846C4
:103870000A2100F0D5FA20EA0402D2B228460A2131
:10388000BDE8384000F0B2BA10B50446FFF7C1FFFA
:1038900020461F21BDE81040FFF7E6BF10B5C0B2BB
:1038A0000C460B2100F0BCFA204010BD1F21FFF791
:1038B000F5BF0A46C0B20B2100F098BA1F21FFF7EE
:1038C000F8BF38B5C5B20C462846172100F0A8FA53
:1038D00020EA0402D2B228461721BDE8384000F0A1
:1038E00085BA70B5C4B206460421204600F098FAA5
:1038F000042100F0FB020546204600F077FA30462E
:10390000F021FFF7DEFF05F0F8022046042100F069
:103910006DFA49222021204600F068FA022000F0CA
:10392000B1FA20460122212100F060FA20469A22B5
:10393000412100F05BFA204601224A2100F056FAAC
:10394000204601224B2100F051FA204600224B2153
:1039500000F04CFA20460122562100F047FA20469A
:103960000122582100F042FA20460122402100F0B5
:103970003DFA2046FF220B2100F038FA0220BDE874
:10398000704000F07FBA000010B5214C88B020468E
:1039900002F008FB002838D11E4B23601823E36196
:1039A0000723E3624FF40073A3614FF482736360F3
:1039B000194B0190A06060612061A062E06020620C
:1039C00060625A6C42F480125A645A6C02F480129B
:1039D0000192019A02901A6B104842F020021A6379
:1039E0001B6B03F020030293029B4FF4607303935D
:1039F0000223049305930123069303A90523079348
:103A000000F00CFD204601F058FF08B010BD00BFCB
:103A1000DC910020005001400038024000140240B8
:103A200070B5334E88B0304601F0F6F904460028F0
:103A30005BD1304A304B314D009086E80C004FF49A
:103A40008043B060F0607061B061F06130623361FA
:103A50002B6B43F004032B632B6B03F004030093E5
:103A6000009B01902B6B43F001032B632B6B0590A4
:103A700003F001030193019B21484FF480730393EA
:103A8000122304930223069303A90423079300F04F
:103A9000C5FC4FF4007303A91A48039300F0BEFC61
:103AA00002942B6C43F400032B642B6C03F400038F
:103AB0000293029B2B6A43F400032B622B6A23F4CC
:103AC00000032B6222460F21482000F0D1FA482043
:103AD00000F002FB22460F21492000F0C9FA4920DC
:103AE00000F0FAFA304600F05BFF08B070BD00BF8E
:103AF00074930020005C0040A08601000038024062
:103B0000000002400008024008B5034800F0BFFF73
:103B1000BDE80840FFF784BF7493002007B5094B48
:103B200002A91B6821F8020D0122074801F021FFBC
:103B300020B1054801F007FFFFF726FF03B05DF84D
:103B400004FB00BF90000020DC91002070B504460B
:103B500088B008BB184B01901A6B42F040021A6300
:103B60001B6B03F040030193019B144B144D33F87E
:103B7000146055F82400039601230493059303A9C8
:103B80000223069300F04AFC0022314655F8240037
:103B900000F032FD08B070BD0128E6D10023029389
:103BA000054B1A6B42F040021A631B6B03F0400393
:103BB0000293029BD9E700BF0038024064CB0008A3
:103BC00084000020044B33F81010044B012253F8FA
:103BD000200000F011BD00BF64CB0008840000206D
:103BE000044B33F81010044B002253F8200000F06F
:103BF00003BD00BF64CB000884000020F0B5294B52
:103C00001D7889B0002D4AD1274C009501261E70E1
:103C1000236B264843F008032363236B049603F0C9
:103C2000080300930227009B05954FF4005303A956
:103C30000393069700F0F2FB0195236B1B4843F0BA
:103C400008032363236B049603F008030193019B8D
:103C500005954FF4805303A90393069700F0DEFB0C
:103C60000295236B124843F004032363236B0496ED
:103C700003F004030424029303A9029B0394059513
:103C8000069700F0CBFB2A462146094800F0B4FC19
:103C900032462146064800F0AFFCFFF775FE09B03A
:103CA000F0BD00BFDA91002000380240000C024055
:103CB0000008024038B50B4C054601224FF4005174
:103CC000094800F099FC00220421204600F094FCF1
:103CD0002846FFF723FF204601220421BDE8384093
:103CE00000F08ABC00080240000C024038B50B4CC2
:103CF000054600224FF40051094800F07DFC0022E7
:103D00000421204600F078FC2846FFF707FF2046F4
:103D100001220421BDE8384000F06EBC00080240DA
:103D2000000C024037B505460C4600220421144819
:103D300000F062FC00224FF40051124800F05CFCDD
:103D40002846FFF7EBFE104B10481B68224601A9DE
:103D500002F035F820B10D4801F0F5FDFFF714FE33
:103D600001224FF400510748019C00F045FC01225C
:103D70000421034800F040FC204603B030BD00BFE2
:103D800000080240000C024090000020DC9100205E
:103D900000F04CB9FFF744BE10B586B00024104BBC
:103DA00000941A6B0F4842F001021A631B6B0494D3
:103DB00003F001030093009B4FF4004301930123A0
:103DC000039301A9084B029300F028FB22460F2120
:103DD000282000F04DF9282000F07EF906B010BD33
:103DE00000380240000002400000211010B586B0EB
:103DF00006AC094B04F8012D1B68029301230A4607
:103E0000019301460094054800F05AFE08B1FFF7FF
:103E10007BFE06B010BD00BF8C0000207493002014
:103E20007FB506AA002302F8013D094B1B680293E7
:103E300001238DE80C000A460146064800F0DAFE30
:103E400008B1FFF761FE9DF8170007B05DF804FBAD
:103E50008C000020749300201FB5084C24688DE866
:103E60001C000A4601230146054800F0C3FE10B1BC
:103E7000FFF74AFE012004B010BD00BF8C000020F7
:103E80007493002000F0D2B838B50C4B0C4C18805D
:103E90000C4B822019806368984740F611039842C2
:103EA0000AD1094D23682C60822098472B68822014
:103EB000DB689847002038BD012038BD38920020CB
:103EC0005C0000203A9200203492002073B52A4D05
:103ED0002B6804461B698220984780B22080002806
:103EE00048D02B680DF106025B6901A98220984732
:103EF000BDF80630A3F5B4739BB20B22B3FBF2F30B
:103F000033B11E4A1288934284BF02F1FF339BB241
:103F1000BDF8042040F6B8318A4295BFC2F57162FF
:103F2000C2F56D620E320832ADF80420BDF804000F
:103F30000F22B0FBF2F030B1114A1288904284BFD8
:103F400002F1FF3080B20F4E0F4D32682968904267
:103F50008CBF821A121A8B428CBF591AC91A92B29C
:103F600089B20A44052AC4BF30602B60336863807D
:103F70002B68A38002B070BD349200203A920020DA
:103F8000389200203C920020409200200F49D1F846
:103F9000883043F47003C1F888300D4B1A68002054
:103FA00042F001021A6098601A6822F0847222F4CA
:103FB00080321A60074A5A601A6822F480221A6016
:103FC000D8604FF000638B60704700BF00ED00E0E9
:103FD00000380240103000247047000008B50B4B39
:103FE0001A6842F400721A601A6842F480621A6019
:103FF0001A6842F480721A60032000F027F801204A
:10400000FFF7C6F9FFF7E8FF002008BD003C0240BB
:10401000024A136801331360704700BFC893002041
:10402000014B1868704700BFC893002037B5019056
:10403000FFF7F6FF019C631C054618BF0134FFF72C
:10404000EFFF401BA042FAD303B030BD074AD3684C
:1040500023F4E0631B041B0C43F0BF63000243F432
:10406000003300F4E0600343D360704700ED00E0EC
:1040700030B5174BDC68C4F30224C4F10703251DD7
:10408000042B28BF0423062D4FF0010505FA03F386
:1040900003F1FF338CBF033C00241940A14005FA13
:1040A00004F4013C2240002842EA01024FEA0212D5
:1040B000AFBF00F1604000F00F00064BD2B2A5BFC9
:1040C00000F56140D2B21A5480F8002330BD00BF21
:1040D00000ED00E014ED00E04209012300F01F00B4
:1040E00003FA00F0014B43F82200704700E100E0C2
:1040F00070B50668049C756C44EA034305F04045BE
:104100002B4373640368DA6343680268B3F5403F86
:1041100030D186681EB1012E03D121F07F41916319
:1041200070BD022E01F47F0301F47F45CCB207D1AC
:10413000D90CAD0AC90241EA451141EAD401EEE7C2
:10414000032E01F07F400AD1DB0CED0A9B0243EA0B
:10415000451343EAD403C10F43EAC131DFE7190D28
:104160002D0B090241EA051141EA1411030F41EA3E
:104170000331D4E7D16070BD704710B5044640B339
:1041800090F8393003F0FF021BB980F83820FFF7B0
:10419000F3FF22686168022384F83930136823F43E
:1041A00040330B4313602268A168536B23F007036D
:1041B0000B4353632268E168136C23F47F5323F0AD
:1041C0003F030B43136400200123E06384F839307C
:1041D00010BD012010BD704773B590F83840012C18
:1041E00005464FF0020414D080F839400126069CA1
:1041F00080F838600094FFF77BFF2A68136843F467
:104200000C5313602A68136833431360002002B014
:1042100070BD2046FBE773B515461A4690F8383056
:10422000012B04464FF0020317D080F839300368A1
:10423000012680F838605D61079B0093069BFFF7BD
:1042400057FF2268136843F40C5313602268136805
:1042500033431360002002B070BD1846FBE738B549
:104260000268136823F0050343F004031360044657
:10427000FFF7D6FE05462368186810F0010009D143
:104280001A6822F40C521A60012384F8393084F839
:10429000380038BDFFF7C4FE401BB0F57A7FEAD97D
:1042A000E36B43F02003E3630320002384F8390029
:1042B00084F8383038BD70B505682A6842F00402C9
:1042C0002A60012908BF0368044614BF243503F19E
:1042D0001C05FFF7A5FE0646286810F020000AD14D
:1042E0002268136823F464531360012384F839307F
:1042F00084F8380070BDFFF793FE801BB0F57A7F1D
:10430000EAD9E36B43F02003E3630320002384F83E
:10431000390084F8383070BD10B5044608B9012062
:1043200010BD174B1B6B190215D42046FFF753FF26
:104330002368002018602368186123689861236847
:10434000D8612368586223685863E06384F83800B2
:1043500084F8390010BD0368196811F0010104D018
:10436000FFF77DFF0028E0D0D9E75A6A920602D510
:10437000FFF7A1FFF6E7DB699B06D6D50121F7E73A
:104380000038024070B590F83830012B4FF002032E
:104390002CD0012280F838200A01851880F83930A5
:1043A000EB692E6AA3F10904012C6C6A056894BFBD
:1043B00004F07F44240644EA06442343164EB9B968
:1043C0006C6A344023436B62036882699A61C369F3
:1043D000093B012B04D8436A026823F07F439362B0
:1043E000012380F83930002380F83830184670BD3A
:1043F000EC6934402343EB61831804689A692261B5
:10440000DB69093B012BEBD800EB011102684B6A19
:1044100023F07F431362E3E7F0FFFC002DE9F74F41
:10442000704ADFF8C8B1DFF8C8A1DFF8C8E100239F
:104430004FF0010C0C680CFA03FC0CEA0404A445D0
:1044400040F0B8804D6825F01005022D14D14FEAD8
:10445000D30800EB880803F00709D8F820504FEA8A
:1044600089090F2606FA09F625EA06060D6905FAF6
:1044700009F53543C8F820504FEA43084D680668EF
:104480004FF0030909FA08F96FEA090905F0030575
:1044900006EA090605FA08F5354305604E6826F078
:1044A0001006013E012E11D88568CE6809EA05057F
:1044B00006FA08F62E438660456825EA0C0C4D681E
:1044C000C5F300159D4045EA0C054560C56809EA3D
:1044D00005098D6805FA08F545EA0905C5604D68C6
:1044E000ED0067D50025404E0195766C3E4F46F4B1
:1044F00080467E647E6C06F480460196019E23F021
:10450000030606F1804606F59C3603F00308D6F84C
:1045100008904FEA88084FF00F0CA7F560570CFA87
:1045200008FCB84229EA0C0C21D005F1804505F5BC
:104530000135A84245D005F58065A84243D05845CD
:1045400043D0504543D0704543D005F58055A8422F
:1045500041D005F58065A8423FD005F58065A842A9
:104560003DD005F58065A8420CBF09250A2505FA4E
:1045700008F545EA0C05B5604F681568E643FF038A
:104580004CBF2543354015604F685568BF034CBF8D
:104590002543354055604F689568FF024CBF254361
:1045A000354095604F68D568BF0254BF06EA0504E0
:1045B0002C43D4600133102B7FF43AAF03B0BDE835
:1045C000F08F0125D3E70225D1E70325CFE70425A6
:1045D000CDE70525CBE70625C9E70725C7E7082569
:1045E000C5E700BF003C014000380240000C02401B
:1045F00000100240001402400AB1816170470904B2
:10460000FBE743695940416170470268536913F4FD
:1046100080630DD06FF48063536104230364202210
:104620000023036380F83C3080F83D200120704770
:10463000184670472DE9F843044617469946C1F3DA
:1046400007488EB22568B8F1010F0CBF6B69AB69E2
:1046500036EA030314BF0120002008B9BDE8F8833F
:104660006B695A0513D52B6843F400732B602368DC
:104670006FF480625A6104232364202200232363A1
:1046800084F83C3084F83D200120BDE8F8837B1C91
:10469000D8D04FB900232022236384F83C3084F81B
:1046A0003D200320BDE8F883FFF7BAFCA0EB09002A
:1046B0008742C7D2EEE72DE9F843089E04469046AC
:1046C0001F46C1F307498DB22368B9F1010F0CBF32
:1046D0005B699B6935EA03030CBF01230023434553
:1046E00002D00020BDE8F8837B1CEDD05FB9002329
:1046F0002022236384F83C3084F83D2084F83E3047
:104700000320BDE8F883FFF78BFC801B8742DBD2D8
:10471000EDE770B504460D46164623685B691B0637
:1047200001D5002070BD2046FFF76FFFA8B96A1CB5
:10473000F3D065B9236C43F02003236420220023C7
:10474000236384F83C3084F83D20032070BDFFF7DC
:1047500067FC801B8542E0D2ECE7012070BD0000C1
:104760002DE9FF41154602680B9E9846136843F4F5
:10477000807313600F4600960A9B00224FF00111D0
:104780000446FFF798FF68B923680A9A1C4907F0A6
:10479000FE071F6120463346FFF74CFF30B1236C04
:1047A000042B18D0032004B0BDE8F08123680390E7
:1047B0005A6903929B69039332460A99039B2046E8
:1047C000FFF7A7FF48B1236C042BEBD122681368D5
:1047D00043F4007313600120E5E7B8F1010F23688B
:1047E00002D1EDB21D61DEE72A0A1A610A9932464A
:1047F0002046FFF78EFF0028E5D12368F1E700BFD0
:10480000020001002DE9FF41164602680B9D984603
:10481000136843F4806313600268136843F4807381
:1048200013600F4600950A9B00224FF001110446C9
:10483000FFF741FF80B923682E49FFB207F0FE025F
:104840001A6120462B460A9AFFF7F4FE40B1236C0A
:10485000042B01D1012000E0032004B0BDE8F08169
:10486000236803905A6903929B6903932A460A9925
:10487000039B2046FFF74DFF40B1236C042BEBD187
:104880002268136843F400731360E3E7B8F1010F83
:10489000236824D1F6B21E612A460A992046FFF702
:1048A00038FF02460028E8D121680B6843F4807382
:1048B0000B60204600950A9B4FF00111FFF7FBFEAD
:1048C0000028C9D123680A9A0A4947F001071F61E5
:1048D00020462B46FFF7AEFE0028B8D1BDE7320ACE
:1048E0001A610A992A462046FFF713FF0028C4D10F
:1048F0002368CFE70200010070B504460D46164656
:104900002068436913F0400301D0002070BD426964
:10491000D2060BD56FF0100242612022236484F886
:104920003C30236384F83D20012070BD5DB9236CC9
:1049300043F020032364202384F83D30002384F8CF
:104940003C30032070BDFFF76BFB801B8542D7D244
:10495000EDE770B504460D46164623685B695B07B4
:1049600001D5002070BD2046FFF74FFEA8B96A1C94
:10497000F3D065B9236C43F0200323642022002385
:10498000236384F83C3084F83D20032070BDFFF79A
:1049900047FB801B8542E0D2ECE7012070BD7047E9
:1049A00038B5044600286AD090F83D3003F0FF0285
:1049B0001BB980F83C20FFF7F2FF2268242384F81B
:1049C0003D30136823F00103136000F0D1FD23682C
:1049D0002C4AB0FBF2F25A6094E822002A4B9D4226
:1049E00085BF4FF496735343531C4FF47A7284BFC0
:1049F000B3FBF2F301330B6294E80A00224A9342BC
:104A000025D85B00B0FBF3F0C0F30B03032B98BF7A
:104A10000420C861216AE36922680B431360E168DE
:104A2000236922680B4393606369A16922680B4381
:104A3000D3602268136843F0010313600020202331
:104A4000206484F83D30206384F83E0038BDA268BD
:104A50004AB903EB4303B0FBF3F0C0F30B0363B1BC
:104A600040F40040D5E719225343B0FBF3F0C0F304
:104A70000B0313B140F44040CBE70120C9E701200C
:104A800038BD00BF40420F00A0860100704710B53E
:104A9000044698B10268242380F83D30136823F05F
:104AA00001031360FFF7F2FF0020206484F83C004C
:104AB00084F83D00206384F83E0010BD012010BD45
:104AC0002DE9F34704469A46884691460C9EFFF727
:104AD000A7FA94F83D30202B054603D0022002B0FF
:104AE000BDE8F08700901923012240492046FFF7D6
:104AF000E2FD0028F2D194F83C30012BEED00123E6
:104B000084F83C3023681A68D0075EBF1A6842F008
:104B100001021A602268136823F4006313602123E2
:104B200084F83D30402384F83E300A9B63620027BE
:104B3000BDF82C30276463852D4BE362638D23859C
:104B40000195009653464A4641462046FFF708FE27
:104B500000282DD0236C84F83C70042B07D1012051
:104B6000BDE7FFF7D6FD20B1236C042B37D003201F
:104B7000B5E7636A2268591C61621B781361628D14
:104B8000238D013A92B2013B62859BB22268238554
:104B9000516949070CD55BB1636A591C61621B7886
:104BA0001361238D013B2385638D013B9BB263859C
:104BB000238D2A4631462046002BD2D1FFF7C9FE6D
:104BC0000028D1D12268136843F4007313602023B6
:104BD00084F83D3084F83C0084F83E007FE722688A
:104BE000136843F400731360B9E700BF02001000BC
:104BF0000000FFFF2DE9F047044686B09A460D46B7
:104C00009146109FFFF70CFA94F83D30202B064692
:104C100004D00225284606B0BDE8F087009019238D
:104C200001227A492046FFF746FD0028F1D194F889
:104C30003C30012BEDD0012384F83C3023681A6806
:104C4000D2075EBF1A6842F001021A602268136838
:104C500023F400631360222384F83D30402384F85A
:104C60003E300E9B63624FF00008BDF83C30C4F844
:104C700040806385664BE362638D238529460196F8
:104C8000009753464A462046FFF7BCFD054630B123
:104C9000236C84F83C80042B50D10125BAE7228D87
:104CA0002368B2B902905A6902929A690292029AF2
:104CB0001A6842F400721A60DFF85881238D002BC5
:104CC0002FD1202284F83D2084F83C3084F83E30F7
:104CD000A0E7012A0BD11A6822F480621A602368C7
:104CE00003905A6903929A690392039AE0E7022AB1
:104CF00010D11A6822F480621A602268136843F4A3
:104D000000631360236804905A6904929B690493BA
:104D1000049BD1E705905A6905929B690593059B11
:104D2000CAE7032B54D8012B0AD132463946204614
:104D3000FFF7E2FD10B3236C202BAED1032569E70A
:104D4000022B00963B464FF000024146204623D1FD
:104D5000FFF7B1FC0028F1D12268136843F4007317
:104D60001360636A5A1C6262226812691A70238D8A
:104D7000013B2385638D013B9BB26385636A5A1CAB
:104D80006262226812691A70238D013B2385638D4C
:104D9000013B9BB2638591E7FFF78DFC024600283B
:104DA000CCD121680B6823F480630B60636A591CC3
:104DB0006162216809691970238D0096013B238582
:104DC000638D013B9BB2638541463B462046BFE76E
:104DD000324639462046FFF78FFD0028ABD1636A83
:104DE0005A1C6262226812691A70238D2268013B84
:104DF0002385638D013B9BB2638553695B077FF518
:104E00005DAF636A591C6162BCE700BF020010001D
:104E10000000FFFF0400010090F83D007047F0B56E
:104E200004684D68E368D20184321444C3F30B4331
:104E30001D44636803F47043636003680C689E1844
:104E4000DB680134C3F30B43234443EA0543736037
:104E50000568CC68EB68C3F30A031C44AB189D6873
:104E600005F470459D600368DD689E188B68C5F386
:104E70000A0501332B4443EA0443B3600368134437
:104E800000251C6924F007041C6103680C691344A5
:104E90001C61046891F8326091F83170D1F818E023
:104EA0001444A369A561046891F8303043EA0E63A5
:104EB000144443EA072343EA0643A3610368134407
:104EC0005C6924F0FF045C6103684C6913445C6115
:104ED00004681444E36923F4E06323F00703E36107
:104EE0000368CC690E6A13443443DC6103681344DD
:104EF0009C6A9D6203684C6A13449C620B69002B98
:104F00002CD0012B2CD09C1E022C2BD9072B14BF8C
:104F10000124022403681344DD6A05F0E025DD6204
:104F200003680E689D184B689B1B8E6A63430333AE
:104F3000744343EA0443EB6204681444236B23F490
:104F4000FF6323F0070323630368C96A13441963EB
:104F500001688B5843F001038B50F0BD0424D9E75E
:104F60000324D7E70224D5E77047000038B504468C
:104F7000002870D090F8A13003F0FF021BB980F830
:104F8000A020FFF7F1FF2268022384F8A130936983
:104F900023F070439361A068636822680343E0686C
:104FA00091690343206903430B43936121682B4AB2
:104FB0008B6813408B60216860698B6843EA00430B
:104FC000A06903438B602168CB681340CB602168E4
:104FD000E069CB6843EA0043206A0343CB60216861
:104FE0000B6913400B6121680B69606A43EA004357
:104FF000A06A03430B6121684B691A404A61226829
:10500000E16A536943EA0143216B0B435361216811
:1050100094F83600CA6A94F8355002F07F42CA62AA
:10502000226894F83430D16A0B4343EA052343EAFB
:105030000043D3622268536B43F006035363226834
:10504000936943F00103936100200123C4F8A40095
:1050500084F8A13038BD012038BD00BF00F800F051
:10506000F8B590F8A030012B06468E4694464FF0D6
:1050700002001DD0012786F8A07086F8A100342414
:105080000D4604FB02640FCD38340FC40FCD0FC49E
:105090000FCD0FC42B682360304662467146FFF780
:1050A000BEFE336800205F6286F8A17086F8A0001B
:1050B000F8BD000090F8A030012B4FF002030ED095
:1050C0000122084980F8A02080F8A1308B6943F4C0
:1050D00080338B61002380F8A12080F8A03018462F
:1050E000704700BF00680140F7B5044610B90120C1
:1050F00003B0F0BD0368D8073FD42368990700F1D7
:10510000888023681E0700F1CA8023685D072ED5BA
:1051100000230193AB4BAC4D1A6C42F080521A64E1
:105120001B6C03F080530193019B2B6843F4807345
:105130002B60FEF775FF06462B68DA0540F1D1803B
:10514000A268A04B012A40F0D3801A6F42F00102FE
:105150001A67A368002B00F0E080FEF761FF994D0D
:10516000064641F288372B6F9B0740F1CF80A2693A
:10517000002A40F0E2800020BAE7924B9A6802F0E1
:105180000C02042A07D09A6802F00C02082A0AD1FD
:105190005B685A0207D58B4B1B689B03ADD56368D0
:1051A000002BAAD1A3E76268864BB2F5803F13D1EA
:1051B0001A6842F480321A606368E3B1FEF730FF88
:1051C000804D06462B689F0397D4FEF729FF801B6E
:1051D0006428F7D903208BE7B2F5A02F1A6803D112
:1051E00042F480221A60E3E722F480321A601A68DF
:1051F00022F48022DFE7FEF713FF724D06462B688C
:1052000098037FF57AAFFEF70BFF801B6428F6D971
:10521000E0E76C4B9A6812F00C0F07D09A6802F026
:105220000C02082A12D15B6859020FD4654B1A6828
:10523000920703D5E268012A7FF459AF1A68216901
:1052400022F0F80242EAC1021A605AE7E2685F4BB4
:10525000B2B101221A60FEF7E3FE5A4D06462B68F2
:105260009B0707D52B68226923F0F80343EAC203A2
:105270002B6046E7FEF7D4FE801B0228EFD9A9E792
:105280001A60FEF7CDFE4F4D06462B689F077FF54F
:1052900038AFFEF7C5FE801B0228F6D99AE762698F
:1052A0004B4B7AB101221A60FEF7BAFE454D064615
:1052B0006B6F98073FF529AFFEF7B2FE801B0228FF
:1052C000F6D987E71A60FEF7ABFE3E4D06466B6FD8
:1052D00099077FF51AAFFEF7A3FE801B0228F6D9C7
:1052E00078E7FEF79DFE801B02287FF625AF71E769
:1052F000052A1A6F03D142F004021A6725E722F04B
:1053000001021A671A6F22F0040221E7FEF788FEF5
:10531000801BB8427FF627AF5CE7FEF781FE294D80
:10532000064641F288372B6F98077FF520AFFEF7CE
:1053300077FE801BB842F6D94CE7224DAB6803F0EC
:105340000C03082B3FF4D3AE224E0023022A336015
:105350002AD1FEF765FE07462B6899011ED4226A02
:10536000E3691343626A43EA8213E26A43EA02632F
:10537000A26A144C5208013A43EA02436B600123CB
:105380003360FEF74DFE054623689A013FF5F3AE04
:10539000FEF746FE401B0228F6D91BE7FEF740FE4B
:1053A000C01B0228D8D915E7FEF73AFE04462B6841
:1053B0009B017FF5E0AEFEF733FE001B0228F6D915
:1053C00008E700BF0038024000700040000047427C
:1053D000800E47426000474208B513498B6803F0CE
:1053E0000C03042B03D0082B03D0104808BD104831
:1053F00008BD4A684B68496813F4800314BF0C4821
:105400000A48C1F3881118BF002302F03F02A1FB34
:105410000001FAF7F3FE044B5B68C3F30143013369
:105420005B00B0FBF3F008BD003802400024F4003C
:1054300000127A002DE9F0410D46044610B9012012
:10544000BDE8F081464B1A6802F00F028A422AD367
:1054500023689E072FD42368D90743D4404B1A688A
:1054600002F00F02954269D323685A076FD423686C
:105470001B0707D53B4A2169936823F4604343EA3D
:10548000C1039360FFF7A8FF364B374A9B68C3F30D
:105490000313D35CD840354B18600120FDF778FF2B
:1054A0000020BDE8F081CAB21A701B6803F00F0338
:1054B0009942C4D1CCE7580741BF2A4A936843F4C4
:1054C000E05393602368274A13F0080F1EBF9368C8
:1054D00043F4604393609368A16823F0F0030B43A7
:1054E0009360B8E762681F4B012A1DD11B6813F453
:1054F000003FA4D01B4EB36823F003031343B360F3
:10550000FEF78EFD41F288380746B368626803F003
:105510000C03B3EB820FA1D0FEF782FDC01B404508
:10552000F3D90320BDE8F081911E01291B6802D840
:1055300013F0007FDDE713F0020FDAE7EAB21A702A
:105540001B6803F00F039D427FF479AF8CE7054A97
:10555000E168936823F4E0530B43936087E700BF4F
:10556000003C02400038024068CB00089400002054
:10557000044B054A9B68C3F38223D35C034A10683B
:10558000D84070470038024078CB000894000020D3
:105590000F2303600B4B9A6802F0030242609A6883
:1055A00002F0F00282609A6802F4E052C2609B68E6
:1055B000DB0803F4E0530361034B1B6803F00F03A4
:1055C0000B60704700380240003C0240F7B50368AA
:1055D0009A07044640F08A80236813F00C0F45D0E8
:1055E000824D834E00232B60FEF71AFD0746336879
:1055F0009B0000F1C08023685F0715D56369D6F86A
:10560000882021691B0602F0E04243EA811313431C
:10561000C6F88830D6F88C30226A23F4F853013A61
:1056200043EA0223C6F88C3023681E0714D5704A5B
:10563000A369D2F8881020691B0701F0706143EA62
:1056400080130B43C2F88830D2F88C30616A23F49F
:1056500040330B43C2F88C3001232B60FEF7E0FC93
:10566000634D06462B68980040F18C8023689A06AB
:1056700032D5002301935E4B5E4D1A6C42F080528E
:105680001A641B6C03F080530193019B2B6843F455
:1056900080732B60FEF7C4FC06462B68D90578D5CD
:1056A000534D2B6F13F440737AD1A26A02F4407306
:1056B000B3F5407F4E4B40F09580996822F07042E0
:1056C00021F4F81122F440720A439A60A26A196F19
:1056D000C2F30B020A431A67206810F010001FBFC4
:1056E000454B94F82C201A60002042E0434D404E78
:1056F00000232B60FEF794FC074633681B0132D46D
:105700002368DF0706D5A36862681B0743EA821394
:10571000C6F884302368980715D5354AE368D2F86F
:10572000841060681B0601F0E04143EA80130B43DC
:10573000C2F88430D2F88C10E36921F01F01013BDC
:105740000B43C2F88C3001232B60FEF769FC284D17
:1057500006462B6819013FF53FAFFEF761FC801B41
:105760000228F6D904E0FEF75BFCC01B0228C4D96E
:10577000032003B0F0BDFEF753FCC01B02287FF6E8
:1057800036AFF5E7FEF74CFC801B02287FF66AAFC8
:10579000EEE7FEF745FC801B02287FF67EAFE7E7C9
:1057A000A26A02F4407293423FF47FAF2B6F144A17
:1057B0000121116023F44073002111602B672B6FCE
:1057C000DA077FF572AFFEF72BFC41F28837064609
:1057D0002B6F9B073FF569AFFEF722FC801BB84299
:1057E000F6D9C5E79A6822F4F8126EE770004742CE
:1057F0000038024000700040E01147426800474214
:10580000400E47422DE9F041069E04468846174661
:105810001D462268936838EA03030CBF0123002366
:105820009F4202D10020BDE8F0816B1CF2D06DBB1D
:105830002268536823F0E00353606368B3F5827F06
:105840000BD1A368B3F5004F02D0B3F5806F04D13C
:105850002268136823F040031360A36AB3F5005F66
:105860000BD12268136823F400531B041B0C136034
:105870002268136843F400531360012384F8513005
:10588000002384F850300320BDE8F081FEF7C8FB08
:10589000801B8542BDD8CBE713B50B460092802113
:1058A00000220446FFF7AEFF20B1636D43F02003F2
:1058B0006365032002B010BD704710B50446002890
:1058C0003ED090F8513003F0FF021BB980F8502011
:1058D000FFF7F2FF2268022384F85130136823F0A7
:1058E0004003136094E80C00A1680B43E1680B438C
:1058F00021690B4361690B43E1690B43216A0B4347
:10590000A16A0B43A16901F400710B431360638B1F
:10591000616A226803F004030B435360A36AB3F582
:10592000005F02BF2368E26A1A612268D36923F428
:105930000063D36100200123606584F8513010BDFD
:10594000012010BD704710B5044680B102680223E3
:1059500080F85130136823F040031360FFF7F2FF23
:105960000020606584F8500084F8510010BD0120CB
:1059700010BD2DE9FF411E4690F85030012B044622
:105980000D46904600F0B980012380F85030FEF7B4
:1059900047FB074694F85100C0B2012840F0AB80A5
:1059A000002D61D0B8F1000F5ED0032384F8513090
:1059B00000236365A363A4F83680A387E387636449
:1059C0002364A3682563B3F5004F08BF2268A4F8D9
:1059D000348002BF136843F480431360A36AB3F5B5
:1059E000005F0BD12268136823F400531B041B0CC7
:1059F00013602268136843F40053136023681A6825
:105A000052065EBF1A6842F040021A60E368B3F5BE
:105A1000006F636839D11BB1E38E9BB2012B07D1B4
:105A2000236835F8022BDA60E38E013B9BB2E386F4
:105A3000E38E9BB293B900973346012202212046A0
:105A4000FFF7E0FE78B93A4631462046FFF724FFDB
:105A5000002839D020236365012005E023689A6877
:105A60009007DED44EB90320012384F8513000237F
:105A700084F8503004B0BDE8F081711CD8D0FEF736
:105A8000CFFAC01B8642D3D8EDE71BB1E38E9BB2A1
:105A9000012B07D1236815F8012B1A73E38E013B04
:105AA0009BB2E386E38E9BB2002BC4D023689A6836
:105AB0009207F0D4002ED6D0731CF3D0FEF7B0FAC4
:105AC000C01B8642EED8CEE7A36833B903932368A0
:105AD000DA6803929B680393039BA36AB3F5005FA4
